:020000040800F2
:1000000048720024390400080F4D0008B148000868
:10001000A94C00087B06000851720008000000008F
:10002000000000000000000000000000790300084C
:100030002D0B000800000000D50300081551000832
:100040005304000853040008530400085304000834
:100050005304000853040008530400085304000824
:10006000530400085304000853040008C5060008A0
:10007000D1060008DD060008E90600085304000860
:1000800053040008530400085304000853040008F4
:1000900053040008530400085304000853040008E4
:1000A00053040008530400085304000853040008D4
:1000B000B552000853040008530400085304000814
:1000C00053040008530400085304000853040008B4
:1000D00053040008530400085304000853040008A4
:1000E00053040008530400080000000053040008F3
:1000F0005304000853040008530400085304000884
:100100005304000853040008530400085304000873
:100110005304000853040008530400085304000863
:100120005304000853040008530400085304000853
:100130005304000853040008530400085304000843
:1001400000000000000000000000000000000000AF
:100150005304000853040008530400085304000823
:100160005304000853040008530400085304000813
:100170005304000853040008530400080000000062
:1001800053040008530400085304000853040008F3
:1001900053040008530400085304000853040008E3
:1001A00053040008530400085304000853040008D3
:1001B00053040008530400085304000853040008C3
:1001C00053040008530400085304000853040008B3
:1001D00053040008114D000853040008530400089C
:1001E0005304000853040008530400085304000893
:1001F0005304000853040008530400085304000883
:100200005304000853040008530400085304000872
:100210005304000853040008530400085304000862
:1002200053040008530400085304000800000000B1
:1002300053040008530400080000000053040008A1
:100240005304000853040008530400085304000832
:100250005304000853040008530400085304000822
:100260005304000853040008530400085304000812
:100270005304000853040008530400080000000061
:100280005304000853040008530400080000000051
:10029000000000005304000800F002F800F05CF8D1
:1002A0000AA090E8000C82448344AAF10107DA45D1
:1002B00001D100F051F8AFF2090EBAE80F0013F0C7
:1002C000010F18BFFB1A43F001031847748C00009C
:1002D000948C00000A444FF0000C10F8013B13F01E
:1002E000070408BF10F8014B1D1108BF10F8015B8F
:1002F000641E05D010F8016B641E01F8016BF9D182
:1003000013F0080F1EBF10F8014BAD1C0C1B09D1D8
:100310006D1E58BF01F801CBFAD505E014F8016B4A
:1003200001F8016B6D1EF9D59142D6D370470000DC
:100330000023002400250026103A28BF78C1FBD8EE
:10034000520728BF30C148BF0B6070471FB508F087
:100350009BFD1FBD10B510BD00F059F91146FFF708
:10036000F5FF06F0E5FF00F077F903B4FFF7F2FFC1
:1003700003BC00F07BF900002C4B19680868B0E85A
:10038000F04F80F30988BFF36F8F4FF0000080F3C8
:10039000118870470000000008480068006880F37A
:1003A00008884FF0000080F3148862B661B6BFF38E
:1003B0004F8FBFF36F8F00DF00BF00BF08ED00E07D
:1003C000DFF80C00016841F470010160704700BF64
:1003D00088ED00E0EFF30980BFF36F8F134B1A68CD
:1003E0001EF0100F08BF20ED108A20E9F04F1060BA
:1003F00009B44FF0500080F31188BFF34F8FBFF363
:100400006F8F08F003F84FF0000080F3118809BCEB
:1004100019680868B0E8F04F1EF0100F08BFB0EC84
:10042000108A80F30988BFF36F8F7047A000002403
:10043000EFF30580704700000948804709480047EE
:10044000FEE7FEE7FEE7FEE7FEE7FEE7FEE7FEE784
:10045000FEE7FEE704480549054A064B70470000E1
:10046000D951000899020008486C00244872002401
:10047000486E0024486E0024032A40F2308010F0B9
:10048000030C00F0158011F8013BBCF1020F62442F
:1004900098BF11F801CB00F8013B38BF11F8013BC0
:1004A000A2F1040298BF00F801CB38BF00F8013B6D
:1004B00011F0030300F05780083AC0F0088051F8AB
:1004C000043B083A51F804CBA0E80810F5E7121DE8
:1004D0005CBF51F8043B40F8043BAFF30080D20707
:1004E00024BF11F8013B11F801CB48BF11F8012BD3
:1004F00024BF00F8013B00F801CB48BF00F8012BF6
:10050000704702F0FF0343EA032242EA024200F08E
:100510005EB84FF0000200B5134694469646203967
:1005200022BFA0E80C50A0E80C50B1F12001BFF4AC
:10053000F7AF090728BFA0E80C5048BF0CC05DF812
:1005400004EB890028BF40F8042B08BF704748BF60
:1005500020F8022B11F0804F18BF00F8012B7047D4
:1005600070477047704710B5203AC0F00B80B1E873
:100570001850203AA0E81850B1E81850A0E81850D8
:10058000BFF4F5AF5FEA027C24BFB1E81850A0E8E1
:10059000185044BF18C918C0BDE810405FEA827CFB
:1005A00024BF51F8043B40F8043B08BF7047D20712
:1005B00028BF31F8023B48BF11F8012B28BF20F8B3
:1005C000023B48BF00F8012B70474FF0000204299E
:1005D000C0F0128010F0030C3FF49DAFCCF1040C7E
:1005E000BCF1020F18BF00F8012BA8BF20F8022BA6
:1005F000A1EB0C01FFF78FBF5FEAC17C24BF00F8BD
:10060000012B00F8012B48BF00F8012B70477546FD
:1006100000F028F8AE4605006946534620F0070072
:10062000854618B020B5FFF715FFBDE820404FF014
:1006300000064FF000074FF000084FF0000B21F0CC
:100640000701AC46ACE8C009ACE8C009ACE8C00999
:10065000ACE8C0098D4670470446AFF300802046E1
:10066000FFF783FE00487047E46B0024014918201F
:10067000ABBEFEE7260002007047FEE70020704791
:100680000020704705490022054810B505F042FAE0
:100690000449034805F031FA002010BDC41A0024B3
:1006A000E4060024C41200240146044810B505F0F5
:1006B00024FA024805F0FAF9002010BDE4060024EF
:1006C00000207047014800F037BA000004050024FC
:1006D000014800F031BA00007C050024014800F018
:1006E0002BBA0000F4050024014800F025BA0000F0
:1006F0006C060024294A016891423AD0274A1832F0
:10070000914236D0254A3032914232D0234A483283
:1007100091422ED0214A603291422AD01F4A78322B
:10072000914226D01D4A9032914222D01B4AA832D3
:1007300091421ED01A4A91421BD0194A1832914256
:1007400017D0174A3032914213D0154A483291429D
:100750000FD0134A603291420BD0114A7832914245
:1007600007D00F4A9032914203D00D4AA8329142ED
:1007700011D1CAB21823103AB2FBF3F26FF3090198
:10078000032A02F00703074AD25CC26500D9091D9B
:1007900081650846704721F0FF01F9E7100002402B
:1007A00010040240008F000830B5224A012301687E
:1007B0009142CAB21BD01F4C1434A14217D01D4C19
:1007C0002834A14213D01B4C3C34A1420FD0194C09
:1007D0005034A1420BD0174C6434A14207D0154CC1
:1007E0007834A14203D0134C8C34A1420CD1142193
:1007F000114C083AB2FBF1F10F4A803201F01F05AB
:1008000004EB8101AB4010E00C4D1824103A0D446C
:10081000B2FBF4F1A82D00D80831094A01F01F04F9
:1008200002EB8101064AA3408032603080E80E006E
:1008300030BD00000854025800580258F0FBFDBFBC
:100840000008024010B50279531E072B2DD8174C13
:100850000168A1421BD0154C1434A14217D0134C8F
:100860002834A14213D0114C3C34A1420FD00F4C7C
:100870005034A1420BD00D4C6434A14207D00B4C34
:100880007834A14203D0094C8C34A14203D10849E9
:10089000074C443102E00749064C443104EB820224
:1008A000C0E91B2101219940416710BD085402583D
:1008B000FC580258FC08024010B583694FF0C07420
:1008C000826A0146002053B1B3F5005F15D072B1C2
:1008D000012A0CD0022A0AD0032A09D104E01AB155
:1008E000012A06D0022A03D1C96AC90100D5012014
:1008F00010BDC96AA142FAD010BD002AF7D0012A62
:10090000F2D0022AF3D0032AF3D010BD2DE9F04F24
:10091000804E804FDFF8FC911836DFF8F8A1483799
:100920000468856D0AF1300ADFF8ECB14C45DFF858
:10093000ECC1DFF8ECE16DD0B4426BD0544569D026
:10094000BC4267D0DFF8D081A8F11808444561D0D7
:100950005C455FD064455DD074455BD0DFF8C481F1
:10096000444557D0DFF8BC8108F11808444551D000
:10097000DFF8B08108F1300844454BD0DFF8A4819E
:1009800008F14808444545D0DFF8988108F160082F
:1009900044453FD0DFF88C8108F17808444539D0D0
:1009A000DFF8808108F19008444533D0DFF8748186
:1009B00008F1A80844452DD0DFF86C81444529D0C2
:1009C000DFF8648108F11408444523D0DFF858812A
:1009D00008F1280844451DD0DFF84C8108F13C0897
:1009E000444517D0DFF8408108F15008444511D044
:1009F000DFF8348108F1640844450BD0DFF8288122
:100A000008F17808444505D0DFF81C8108F18C080E
:100A1000444509D1D0E91948C4F80480C46E1CB11A
:100A2000D0E91C48C4F8048004684C452ED0B44278
:100A30002CD054452AD0BC4228D0374E183EB44260
:100A400024D05C4522D0644520D074451ED0354E5C
:100A5000B4421BD0334E1836B44217D0314E303624
:100A6000B44213D02F4E4836B4420FD02D4E6036CC
:100A7000B4420BD02B4E7836B44207D0294E903674
:100A8000B44203D0274EA836B44215D190F85C602A
:100A90003F2406F01F06B440AC600468256825F4C6
:100AA000802525602EE09A600068C160BDE8F08F67
:100AB00099600068C260F9E71B4EB4421BD01A4E21
:100AC0001436B44217D0184E2836B44213D0164EFE
:100AD0003C36B4420FD0144E5036B4420BD0124EB6
:100AE0006436B44207D0104E7836B44203D00E4E6E
:100AF0008C36B442DAD190F85C60012406F01F060F
:100B0000B4406C60046863608368402B0368CFD195
:100B1000C9E700001000024088000240A000024027
:100B2000B80002401004024008540258704772B6E0
:100B3000FEE790F8350070472DE9FC5F0446F74E5C
:100B40000020DFF8D88300904FF41652F44808F1E3
:100B50001808A56DDFF8C493DFF8C0A3016809F198
:100B6000300920680AF1480AB1FBF2F1B042019164
:100B70002F68D5F800C0DFF8ACB335D041468842C5
:100B800032D0484530D050452ED058452CD0E5497C
:100B90001831884228D0E3493031884224D0E149D5
:100BA0004831884220D0E04988421DD0DE491831C2
:100BB000884219D0DC493031884215D0DA494831B1
:100BC000884211D0DFF860E30EF1600E70450BD063
:100BD000D54A7832904207D0D34B9033984203D015
:100BE000D149A83188427DD194F85C20082102F0D7
:100BF0001F0201FA02F23A424AD0B04232D04045D6
:100C000030D048452ED050452CD058452AD0C54A22
:100C10001832904226D0C34A3032904222D0C14A84
:100C2000483290421ED0C04A90421BD0BE4A183271
:100C3000904217D0BC4A3032904213D0BA4A483260
:100C400090420FD0B84A603290420BD0B64A783208
:100C5000904207D0B44A9032904203D0B24AA832B0
:100C6000904203D1026802F0040202E0026802F03E
:100C700008026AB1026822F00402026094F85C0083
:100C800000F01F008140A960606D40F001006065C8
:100C900094F85C00012100F01F008140394240D0EF
:100CA0002068B04234D0404532D0484530D050451D
:100CB0002ED058452CD09B4A1832904228D0994AC1
:100CC0003032904224D0974A4832904220D0964AFF
:100CD00090421DD0944A1832904219D0924A303234
:100CE000904200E0AFE113D08F4A483290420FD0DB
:100CF0008D4A603290420BD08B4A7832904207D0B6
:100D0000894A9032904203D0874AA83290427DD1DE
:100D1000406910F0800F04D0A960606D40F00200BF
:100D2000606594F85C00042100F01F0081403942A6
:100D30003ED02068B04232D0404530D048452ED019
:100D400050452CD058452AD0764A1832904226D0A9
:100D5000744A3032904222D0724A483290421ED0B9
:100D6000714A90421BD0704A1832904217D06E4A96
:100D70003032904213D06C4A483290420FD06A4AC7
:100D8000603290420BD0684A7832904207D0664A6F
:100D90009032904203D0644AA83290424ED100680B
:100DA00010F0020F04D0A960606D40F0040060658F
:100DB00094F85C00102100F01F008140394258D0A7
:100DC0002068B04234D0404532D0484530D05045FC
:100DD0002ED058452CD0534A1832904228D0514A30
:100DE0003032904224D04F4A4832904220D04E4A6E
:100DF00090421DD04C4A1832904219D04A4A3032A3
:100E0000904215D0484A4832904200E014E00FD09A
:100E1000454A603290420BD0434A7832904207D024
:100E2000414A9032904203D03F4AA832904207D1C3
:100E3000006800F0080006E0006872E70068B7E7A5
:100E4000006800F00400A0B1A960206801684903AF
:100E500004D50068000308D5A16C07E00168C90546
:100E600003D4016821F008010160216C09B120461A
:100E7000884794F85C00202100F01F00814039422F
:100E800079D02068B04232D0404530D048452ED08D
:100E900050452CD058452AD0224A1832904226D0AC
:100EA000204A3032904222D01E4A483290421ED010
:100EB0001D4A90421BD01C4A1832904217D01A4A41
:100EC0003032904213D0184A483290420FD0164A1E
:100ED000603290420BD0144A7832904207D0124AC6
:100EE0009032904203D0104AA832904203D1006859
:100EF00000F0100002E0006800F00200B0B3A9604A
:100F000094F835000428206801680FD049037ED585
:100F1000006800032BD4616C2AE00000100002403E
:100F200098000024700002401004024021F01601D5
:100F300001602068416921F080014161206C08B99D
:100F4000A06C20B12068016821F00801016094F8CC
:100F50005C303F21012003F01F0300229940A9606B
:100F600084F8350084F83420216D65E003E0E16BFE
:100F700009B120468847606D00287DD0606DC007AC
:100F800059D02068042184F83510B0422BD0404558
:100F900029D0484527D0504525D0584523D09D49D4
:100FA000884220D09B49183188421CD09949303161
:100FB000884218D09849884215D0974918318842FC
:100FC00011D09549303188420DD09349483188423B
:100FD00009D091496031884205D08F4978318842E3
:100FE00001D08D499031016821F001010160206834
:100FF0000099019A491C0091914202D80168C907E1
:10100000F6D10068C00710D003200FE0FFE70168A9
:10101000C905ACD403680121002223F0100303604A
:1010200084F8351084F83420A1E7012084F83500D5
:10103000002084F83400E16C00291DD002B0204665
:10104000BDE8F05F0847754988421DD073491431E7
:10105000884219D071492831884215D06F493C31F6
:10106000884211D06D49503188420DD06B496431AE
:10107000884209D0694900E084E07831884203D091
:1010800066498C3188427DD194F85C8004270168E0
:1010900008F01F0807FA08F717EA0C0F009746D068
:1010A0004F0744D500980F04686003D5C8033CD4AB
:1010B000A16CC1E7880638D42068B0422DD05549CC
:1010C0006039884229D0484527D0504525D0584519
:1010D00023D05049884220D04E49183188421CD034
:1010E0004C493031884218D04B49884215D04A4982
:1010F0001831884211D04849303188420DD04649D4
:101100004831884209D0704507D0904205D09842B6
:1011100003D04149A831884203D1016821F0080178
:1011200002E0016821F004010160216C84E70227DC
:1011300007FA08F717EA0C0F00974ED08F074CD527
:1011400000980F04686003D5C80344D4616C73E74A
:10115000880640D42068B0422FD02E49603988429A
:101160002BD0484529D0504527D0584525D029496E
:10117000884222D02749183188421ED02549303173
:10118000884200E044E018D02349884215D0224923
:101190001831884211D02049303188420DD01E4983
:1011A0004831884209D0704507D0904205D0984216
:1011B00003D01949A831884203D1016821F01401F4
:1011C00002E0016821F00A010160012184F8351074
:1011D000002084F83400E16B2EE7082202FA08F2BE
:1011E00012EA0C0F14D0090712D5016821F00E0184
:1011F000016094F85C100120002201F01F0100FA48
:1012000001F16960606584F8350084F8342012E7E4
:10121000BDE8FC9F880002401004024008540258B8
:101220002DE9F05F044600F067FC002C07467DD0F6
:10123000E34E022120684FF00308DFF888934FF057
:101240000005DFF884A3B042DFF880B334D0DC4A75
:101250001832904230D048452ED050452CD05845B9
:101260002AD0DA4A1832904226D0D84A30329042F8
:1012700022D0D64A483290421ED0D54A90421BD046
:10128000D34A1832904217D0D14A3032904213D00C
:10129000CF4A483290420FD0CD4A603290420BD0B4
:1012A000CB4A7832904207D0C94A9032904203D05C
:1012B000C74AA83290427DD184F83510B04284F8F4
:1012C00034502ED0BE49183188422AD0484528D003
:1012D000504526D0584524D0BC491831884220D0EA
:1012E000BA49303188421CD0B8494831884218D0B8
:1012F000B749884215D0B6491831884211D0B4494F
:10130000303188420DD0B2494831884209D0B049C5
:101310006031884205D0AE497831884201D0AC496D
:101320009031016821F00101016008E027E100BF70
:1013300000F0E2FBC01B052801D920211CE1206838
:101340000068C007F4D104F108002168D4E9053C25
:101350008E4685C809681043D4E907281F43636A8D
:1013600038439C4F40EA0C001043394040EA0800E3
:10137000042B40EA010003D1D4E90B1211430843C6
:10138000954909686FF30F01B1F1005F0FD36168F0
:10139000A1F12902052A08D9163A032A05D9083AE3
:1013A000012A02D94F39032901D840F48010CEF820
:1013B000000000E023E02068676A4069042F20F005
:1013C000070047EA00070DD1D4E90A01074349B1F4
:1013D0002046FFF771FA28B140206065012184F8AA
:1013E0003510CCE0206847612046FFF783F994F878
:1013F0005C203F2102F01F029140816054E0774A57
:1014000090421BD0754B1433984217D0734B28333E
:10141000984213D0714B3C3398420FD06F4B5033EE
:1014200098420BD06D4B6433984207D06B4B7833A6
:10143000984203D0694B8C3398427DD184F83510A3
:1014400084F83450664B0168A26801EA030E402A12
:1014500073D0802A72D00022D4E90378D4E9053110
:1014600042EAD70242EAD8085C4AD4E9077C48EA53
:10147000D30848EAD10141EAD701524241EA1C119E
:10148000142341EA0E01016020681044B0FBF3F020
:101490008000E0652046FFF72DF994F85C200121DB
:1014A00002F01F02914041602068B04257D0444989
:1014B0001831884253D0484551D050454FD05845F7
:1014C0004DD042491831884249D040493031884294
:1014D00045D03E494831884241D03D4988423ED0BE
:1014E0003B49183188423AD039493031884236D0A8
:1014F00037494831884232D03549603188422ED050
:101500003349783188422AD031499031884226D0F7
:101510002F49A831884222D0304988421FD02F4914
:10152000143188421BD02D492831884217D02B49CD
:101530003C31884213D002E01DE017E018E0274953
:10154000503188420BD025496431884207D0234965
:101550007831884203D021498C31884229D12046F4
:10156000FFF722F9A06880280CD00CE0102273E766
:101570004FF4804270E74021616584F83580012096
:10158000BDE8F09F6560216E20790860D4E91901FB
:1015900041606068401E072808D82046FFF752F9CE
:1015A000E06E0560D4E91C01416002E0E566256754
:1015B00065670120656584F835000020E0E70000DC
:1015C00010000240400002405800024070000240FB
:1015D000100402403F8010FE0010005C08540258C6
:1015E0000F00FEFF2DE9F84F04008C464FF000007D
:1015F000009014D094F83400012812D094F835509B
:101600000120002184F83400012D0CD0C002606557
:101610000120009084F834100098BDE8F88F012074
:10162000FBE70220F9E78C4D0226206884F835603C
:10163000A8428A4D61658A4E8A4FDFF82C82DFF816
:101640002C92DFF82CA2DFF82CB226D0A84224D0AE
:10165000B04222D0B84220D040451ED048451CD0D0
:1016600050451AD0584518D08349884215D0824930
:101670001831884211D08049303188420DD07E49DE
:101680004831884209D07C496031884205D07A4986
:101690007831884201D078499031016821F0010108
:1016A000016061462046FFF731F96B4920688842A6
:1016B0002CD0A8422AD0B04228D0B84226D04045EB
:1016C00024D0484522D0504520D058451ED06A4AE3
:1016D00090421BD0684A1832904217D0664A303286
:1016E000904213D0644A483290420FD0624A60322E
:1016F00090420BD0604A7832904207D05E4A9032D6
:10170000904203D05C4AA83290420CD1026822F089
:101710001E0242F016020260206C88B12068026846
:1017200042F008020BE0026822F00E0242F00A02C8
:101730000260206C20B12068026842F0040202605E
:10174000206888424BD0A84249D0B04247D0B84226
:1017500045D0404543D0484541D050453FD05845FD
:101760003DD0454A90423AD0434A1832904236D052
:10177000414A3032904232D03F4A483290422ED0D5
:101780003D4A603290422AD03B4A7832904226D07D
:10179000394A9032904222D0374AA83290421ED025
:1017A000364A90421BD0354A1432904217D0334A01
:1017B0002832904213D0314A3C3290420FD02F4A07
:1017C000503290420BD02D4A6432904207D02B4ABF
:1017D0007832904203D0294A8C3290420DD1206E4B
:1017E0000268D20303D5026842F480720260E06EA0
:1017F00018B1026842F4807202602068884226D0E4
:10180000A84224D0B04222D0B84220D040451ED0B9
:1018100048451CD050451AD0584518D01649884222
:1018200015D015491831884211D0134930318842FA
:101830000DD011494831884209D00F4960318842A2
:1018400005D00D497831884201D00B4990310168AB
:1018500041F001010160DFE6100002402800024073
:1018600040000240580002407000024088000240E0
:10187000A0000240B8000240100402400854025880
:1018800070B5044600F038F90546601C02D00448E3
:101890000078044400F030F9401BA042FAD370BD38
:1018A0008C0000242DE9F84F03247D4D00234FF0D8
:1018B00001094FF0B04B4FF00F0AE9E009FA03F7C6
:1018C0003A4076D00E7906F00306012E01D0022EA2
:1018D00018D1D0F808C04FEA430ECE6804FA0EF8CB
:1018E0002CEA080C06FA0EF646EA0C068660D0F8DA
:1018F00004C00E792CEA070CC6F300169E4046EA97
:101900000C0646600E79F643B6070BD0C6684FEA60
:1019100043088F6804FA08FC26EA0C0607FA08F761
:101920003743C7600E7906F00306022E12D1DE0897
:101930000F694FEA437C00EB8606B646366A4FEAEB
:10194000DC6C0AFA0CF807FA0CF726EA08063743AB
:10195000CEF820700F7906684FEA430807F00307B6
:1019600004FA08FC07FA08F726EA0C063743076072
:101970004E6816F4403F1CD04A4E376847F00207C5
:10198000376036689F0706F00206009623F00306CC
:1019900006F1B046B6463F0FD6F80864DFF8088176
:1019A0000AFA07FC404526EA0C0603D14FF0000C6A
:1019B00041E06CE0DFF8F4C0604502D14FF0010C6B
:1019C00039E0DFF8ECC0604502D14FF0020C32E0A4
:1019D000DFF8E0C0604502D14FF0030C2BE0DFF8E8
:1019E000D8C0604502D14FF0040C24E0DFF8CCC031
:1019F000604502D14FF0050C1DE0DFF8C4C0604522
:101A000002D14FF0060C16E0DFF8B8C0604502D1F5
:101A10004FF0070C0FE0DFF8B0C0604502D14FF087
:101A2000080C08E0DFF8A4C0604502D14FF0090CB3
:101A300001E04FF00A0C0CFA07FC4CEA060CCEF859
:101A400008C44F68DBF80060FF0226EA020600D5F2
:101A500016435F46CBF80060D1F804C0DBF80460A1
:101A60005FEA8C2C26EA020600D516437E606E687B
:101A70004F6826EA0206BF0300D516436E602E6843
:101A80004F6826EA0206FF0300D516432E605B1C52
:101A90000A6832FA03F67FF411AFBDE8F88F000050
:101AA00080000058F4440258000002580004025814
:101AB00000080258000C0258001002580014025886
:101AC00000180258001C0258002002580024025836
:101AD000426921EA02030A4043EA024181617047F8
:101AE0000AB1816170470904FBE700000148006802
:101AF000000C70470010005C0148806870470000CF
:101B00008C00002430B590F84120202A24D190F890
:101B10004020012A20D0012380F84030242280F880
:101B20004120202300240268156825F00105156076
:101B30000268156825F480551560026815680D4324
:101B4000156001680A6842F001020A6080F84130BD
:101B500080F84040002030BD022030BD30B590F804
:101B60004120202A22D190F84020012A1ED00123B2
:101B700080F84030242280F841202024002502688B
:101B8000136823F0010313600268136823F4706381
:101B900043EA0121116001680A6842F001020A600B
:101BA00080F8414080F84050002030BD022030BD18
:101BB00070B5040004D094F84100002510B106E08F
:101BC000012070BD204684F8405000F051F82420D8
:101BD00084F841002068016821F001010160D4E926
:101BE000001020F0706008612068816821F40041D5
:101BF0008160E06821680128A06830D040F404408A
:101C00008860E0680228206841682BD021F40061D8
:101C1000416020682021154A4368134343602068CF
:101C2000C26822F40042C26054F8106B0DCC10431D
:101C300040EA0320F06054F81C3CD4E90002104351
:101C4000186054F81C0D026842F0010202606564DD
:101C500084F84110256384F84250002070BD40F4A0
:101C60000040CDE741F40061D2E7000000800002AF
:101C700010B5B6B00446142130A8FEF74AFCC021C6
:101C80006846FEF746FC1949206888422BD100209F
:101C9000219008210446CDE90010684600F000FFBD
:101CA00008B1FEF744FF1248016841F002010160EB
:101CB000006830AB122100F0020035904FF4406014
:101CC000042283E813000B4830A9CDE93342FFF723
:101CD000E9FD07480830016841F4800101600068AF
:101CE00000F48000359036B010BD00000058004070
:101CF000E044025800040258024881680278114406
:101D0000816070478C000024032010B500F0FEF8BD
:101D100001F02CFD0F4A104914681368C4F3032224
:101D200003F00F038A5CC95C02F01F0201F01F017F
:101D3000D0400A4A20FA01F11160094908600F20D9
:101D400000F010F808B1012010BD00F09FF800204D
:101D500010BD000018440258088F00089C000024A1
:101D60009800002410B5102804468AB02DD2002215
:101D700001461C2000F0AAF81C2000F099F8184831
:101D800004601848016841F001010160006809A978
:101D900000F001000890684601F086FC0598B8B193
:101DA00001F0D2FC40001049002240F2E733B0FBC2
:101DB000F1F10E484FF080440460C0E90332491E3F
:101DC000C0E9011202F09CF928B101200AB010BD4F
:101DD00001F0BAFCE7E7054802F06CFAF6E700000C
:101DE00090000024E844025840420F00C42200241E
:101DF000154BF0B5083B427813491A600B680A1F6F
:101E000023F001030B6043681360057BC67A827A76
:101E1000437B2D07847B45EA0665C77B90F809C0A4
:101E2000067A90F800E045EAC24040EA834040EA82
:101E3000444040EA074040EA0C2040EA460040EABD
:101E40000E000860F0BD0000A0ED00E0BFF35F8F62
:101E5000044800210368034A23F48033036070328E
:101E60001160704724ED00E0074A40F00100064988
:101E700070321060086840F480300860BFF34F8F04
:101E8000BFF36F8F7047000024ED00E0074882B079
:101E9000016841F002010160006800220F2100F09A
:101EA00002000090901E02B000F010B8F4440258F6
:101EB000002809DB410900F01F028900012001F11F
:101EC000E0219040C1F80001704700000E4BF0B4D3
:101ED0001B680D46C3F30223C3F10706042E00D985
:101EE0000426191D072901D2002300E0DB1E01246E
:101EF00004FA06F19C40491E2940641E9940144092
:101F00002143F0BC05F0A5B90CED00E0064900F056
:101F1000070210B54FF6FF040868044B204040EA62
:101F200002201843086010BD0CED00E00000FA0527
:101F300001680123C0F8D834002280F8CC248869D5
:101F4000044A40F000608861486D104348650020F5
:101F500070470000030000107047006841620020D5
:101F60007047F0B503685D6A39B19F6A4C1E002066
:101F70004FF4827605EB17450BE045EA0240986284
:101F800010E0471C06EB800053F800C0F8B205EBE8
:101F90001C45A042F5D34FF4807000EB810045EA68
:101FA00002421A500020F0BD0349CA68521CCA60A0
:101FB000D0F8E00404F09DB81000002401EBC10249
:101FC00000EB8202D0F8E004126A03F0EEBF01EBEE
:101FD000C10200EB8202D0F8E004D2F8602204F0E3
:101FE00040B8D0F8E00404F086B80A0601F00F010A
:101FF00001EBC10100EB810101D5143101E001F5D4
:102000001571006804F070BF01F00F020B0670B587
:1020100002EBC20104464FF001004FF0000504EB53
:10202000810102D54875143103E081F8555201F55C
:1020300015710A7094F89424012A08D084F8940445
:10204000206804F071FC002084F8945470BD0220D4
:1020500070BD70B50279044601F00F00904201D9BD
:10206000012070BD01F00F024FF000050B0602EBDE
:10207000C2014FF0010204EB810102D54A7514310F
:1020800003E081F8555201F515718D70087094F8D0
:102090009404012808D084F89424206804F0AEFD4C
:1020A000002084F8945470BD022070BD01F00F012F
:1020B00001EBC10100EB8100D0F8680270472DE907
:1020C000F04101F00F0604460D064FF0010006EB4B
:1020D000C6014FF0000504EB810102D548751431AB
:1020E00003E081F8555201F515714F788A600B7144
:1020F0000E7007B14E83022B00D14D7194F89424D9
:10210000012A09D084F89404206804F055FB28467D
:1021100084F89454BDE8F0810220FBE770B501F02B
:102120000F05002405EBC50100EB810101F51871D5
:1021300081E81C0001F80B4C01F80C5D8379012B40
:1021400000D1CA618279006804F0B0FD002070BD42
:1021500070B50D460179044605F00F00884201D99B
:10216000012070BD29064FF000064FF0010206D590
:1021700000EBC00104EB81014A75143107E005EB67
:10218000C50104EB810181F8556201F515718A7072
:10219000087094F89404012807D084F894242068E7
:1021A00004F058FD280702D007E0022070BDA17995
:1021B00004F29C42206804F0F5FC002084F894644A
:1021C00070BD70B501F00F04002504EBC4010126B9
:1021D00000EB8101203181E82C0001F80B6C01F843
:1021E0000C4D8379012B00D1CA618279006804F01B
:1021F0005DFD002070BD00002DE9FC5F0568044610
:10220000284604F00DFF00287ED1206804F034FF3A
:10221000002879D0D5F80808C0F30D20C4F8D404FC
:10222000206804F029FF800704D52068416901F087
:1022300002014161206804F01FFFC10604F29C40C6
:10224000009035D52068816921F0100181612F6AE5
:1022500007F00F01C7F3434001EBC101022804EB73
:10226000810606F5157602D0062812D01BE047F647
:10227000F070074217D0C7F30A12F16817462846D4
:1022800004F0FEFE7169F068394471613844F06011
:1022900009E000990822284604F0F2FE7069C7F3AD
:1022A0000A11084470612068816941F01001816160
:1022B000206804F0E1FE00034FF0080B4FF0000A25
:1022C0004FF001097CD52068002604F0B4FE0746D3
:1022D00074E0F80770D02068F1B204F0C5FE8046C3
:1022E000C00707D005EB4611C1F8089B31462046D0
:1022F00002F01AFD5FEA087024D505EB4611C1F81B
:1023000008BBFA49206800E03EE2026C00EB461090
:1023100001928A42D0F8081B05D9090403D54FF46D
:102320000041C0F8081B204600F03AFBEF49019835
:10233000884207D9A079012804D120680121009A98
:1023400004F030FC5FEAC86004D505EB46111020AC
:10235000C1F8080B5FEA88701DD56869000605D5CD
:10236000D5F8040840F48061C5F8041806EBC600EF
:1023700004EB800090F8571200F51570012905D183
:1023800080F803A02046F1B200F004FA05EB4611F4
:102390000220C1F8080B5FEA886004D505EB4611FE
:1023A0002020C1F8080B5FEA884005D505EB4611EF
:1023B0004FF40050C1F8080B7F08761C002F88D11D
:1023C000206804F059FE40036ED5206804F02CFE0E
:1023D0000026074666E0F80762D02068F1B204F0F4
:1023E00031FE8046C00723D0D5F8342806F00F010F
:1023F00005EB461309FA01F18A43C5F83428C3F8FE
:102400000899A07901280FD106EBC60004EB8000E3
:10241000D0E907211144016236B9606A20B9206809
:102420000121009A04F0BEFB2046F1B2FFF7C6FD81
:102430005FEA087003D505EB4611C1F808B95FEAF9
:10244000C86004D505EB46111020C1F808095FEA01
:10245000486004D505EB46114020C1F808095FEA41
:10246000887016D53146284604F0AFFD06EBC6004D
:1024700004EB8000C17D1430012905D180F803A050
:102480002046F1B200F082F905EB46110220C1F8B6
:1024900008095FEA086003D53146204602F0AAFC2D
:1024A0007F08761C002F96D1206804F0E5FD0028F7
:1024B00011DAD5F8040820F00101C5F8041894F8E1
:1024C000CC0401283BD0204600F04EFA2068416938
:1024D00001F000414161206804F0CEFD00050BD5FC
:1024E000D5F80808C00702D0204600F089FA206815
:1024F000416901F400614161206804F0BDFD000103
:102500000AD52068416901F00061416194F8CC046A
:10251000E0B1204600F074FA206804F0ADFDC0047C
:1025200072D5D5F8040820F00101C5F80418206818
:10253000102104F04AFD00214FF67F322DE00021EA
:10254000204684F8CCA4FFF707FDBFE784F8CC94BD
:102550002068406D0121C0F38300C4F8D0042046F8
:10256000FFF7FAFCD8E700BF05EB4110C0F80829D7
:10257000D0F8003923F40013C0F80039C0F8082B54
:10258000D0F8003B23F40013C0F8003BD0F8003B28
:1025900043F00063C0F8003B491C20798842E3D82F
:1025A000D5F81C0840F00111C5F81C18E07B68B193
:1025B000D5F8840840F00B01C5F88418D5F8440814
:1025C00040F00B012846C5F844180DE0D5F8140872
:1025D00042F22B010843C5F81408D5F8100840F062
:1025E0000B012846C5F81018D0F8000820F4FE6149
:1025F000C5F80018A1792068009A04F0D3FA206881
:10260000416901F480514161206804F035FD800486
:1026100015D5206804F010F9206804F0F4FCE0718E
:1026200001F070F8E2790146206804F089FD204647
:1026300000F07EF92068416901F400514161206891
:1026400004F01AFD000707D5204600F091F9206834
:10265000416901F008014161206804F00DFD0006A8
:1026600016D5A869012620F08001A9610DE000BF00
:1026700006EBC60004EB800090F85702012803D156
:102680002046F1B2FFF7B1FC761C2079B042EFD8BA
:10269000206804F0F1FCC0021FD501264F4614E06B
:1026A00006EBC60105EB461004EB8101D0F80009EA
:1026B0000A7E012A08D1002806DAF0B2CF7540F070
:1026C00080012046FFF791FC761C2079B042E7D8C4
:1026D0002068416901F480114161206804F0CCFC5C
:1026E000800234D501204B4629E000000A30544FC7
:1026F00000EBC00205EB401104EB8202D1F8001B95
:1027000092F85862012E19D1002917DA94F8D4648E
:1027100001F4803106F00106B1420FD182F8573240
:10272000A96941F08002AA616969090606D4D5F851
:10273000040840F40070C5F8040803E0401C217947
:102740008142D5D82068416901F4001141612068B7
:1027500004F092FC400007D52046FFF725FC2068D6
:10276000416901F080414161206804F085FC400727
:102770000AD520684568680702D52046FFF731FC76
:102780002068416829434160BDE8FC9FD0F8E0041F
:1027900003F007BDD0F8E00403F017BDF8B504005E
:1027A00004D094F89504002510B106E00120F8BD8E
:1027B000204684F8945400F057F8032084F89504D8
:1027C000206804F0E9F9207C8DF8000094E80F00FF
:1027D00004F040F80226B0BB2068002104F070FC31
:1027E00088BB002001270CE000EBC001421C04EB79
:1027F00081014F750D76CD610D624D620875C885FA
:10280000D0B221798142EFD8002011E000EBC00165
:10281000421C04EB810181F8555281F85852C1F8ED
:102820005C52C1F86052C1F8645281F85402D0B2CF
:1028300021798142EAD8207C8DF8000094E80F00CD
:1028400004F0F4F810B184F89564AFE7207B657468
:1028500084F89574012802D12046FFF769FB2068AF
:1028600004F0D6F80020F8BD10B5B6B00446142127
:1028700030A8FDF74EFEC0216846FDF74AFE264906
:102880002068884246D100214FF4802082002292A5
:10289000CDE90001684600F003F908B1FEF747F9F9
:1028A00000F0F6F81D4900201D4A00E0401C0B68AE
:1028B0005B0101D49042F9D308681A49C0F38060E3
:1028C00008611948016841F00101016000680A23AC
:1028D000022200F00100359000204FF4C0513091E9
:1028E00030A9CDE93120CDE933031048FEF7DAFFF6
:1028F0000D480838016841F000610160006800225D
:10290000042100F0006035906520FFF7DFFA6520B4
:10291000FFF7CEFA36B010BD000008400C48025850
:10292000A086010010000024E04402580000025874
:1029300070B504460B4801680125491C0160E07927
:1029400070B1022801D0FEF7F2F8D4F8E00429466D
:1029500003F0AAFCD4F8E004BDE8704003F05EBCCC
:102960000025F2E710000024D0F8E00403F085BC55
:10297000D0F8E00403F08BBC10B5044690F8940442
:1029800001280AD00120617484F89404206804F0BE
:10299000C6FB002084F8940410BD022010BD000086
:1029A00005494A68521C4A60D0F8E02400F29C4174
:1029B000104603F085BC00001000002410B590F80C
:1029C000941404460068012909D0012184F8941464
:1029D000C168490609D5617B012902D005E00220C2
:1029E00010BD816B41F480318163206804F0CBFA23
:1029F000206803F0FFFF002084F8940410BD00005D
:102A000010B504460B488168491C8160D4F8E00485
:102A100003F098FC2068D0F8001E41F00101C0F8D6
:102A2000001EE07A002804D00348016841F0060146
:102A3000016010BD1000002410ED00E0134970B5D6
:102A40000A68D243520705D5096801F0070181429F
:102A500013D118E00A6822F0070202430A60FFF768
:102A60004BF80A4D4FF47A760446083D07E000BF64
:102A7000FFF742F8001BB04201D9012070BD286861
:102A8000C0438004F4D4002070BD00000C480258FC
:102A90000248016841F08071016070470C4802589B
:102AA0002DE9FE4F0546DFF8E48350F8081B0024AB
:102AB000F64FC943019005F12800264608F1240885
:102AC000009008011DD4A86E50B1B0F5801F0CD045
:102AD000B0F5001F0ED0B0F5401F1ED001240FE04E
:102AE000386840F40030386017E00198022102F0A5
:102AF000D3F903E00098022102F05EFA04000CD042
:102B000026462888C043C00523D4A86D05281ED2B8
:102B1000DFE800F00C11161B1B00AA6ED8F800109D
:102B200021F440111143C8F80010EAE7386840F476
:102B30000030386009E00198002102F0ADF903E0AF
:102B40000098002102F038FA044674B100E0012434
:102B500026462888C043800528D4E86D80281ED0EA
:102B60000CDC90B140280ED114E0AA6DD8F800100A
:102B700021F007011143C8F80010EAE7C02813D07C
:102B8000B0F5807F10D001240FE0386840F40030A9
:102B9000386009E00198002102F07EF903E0009816
:102BA000002102F009FA04469CB126462888DFF885
:102BB000DC92C04309F12C0940052CD4D5F8A800BB
:102BC000B0F5800F20D00DDCA0B1B0F5001F0FD103
:102BD00015E0EA6DD8F8001021F4E0711143C8F84F
:102BE0000010E3E7B0F5C00F13D0B0F5000F10D020
:102BF00001240FE0386840F40030386009E00198A3
:102C0000002102F049F903E00098002102F0D4F914
:102C100004467CB126462888C04300052DD4D5F84B
:102C2000AC00B0F1007F21D00EDCA8B1B0F1807F04
:102C300010D116E0D5F8A820D9F8001021F46001D1
:102C40001143C9F80010E6E7B0F1407F13D0B0F1AE
:102C5000806F10D001240FE0386840F400303860F5
:102C600009E00198002102F017F903E00098002123
:102C700002F0A2F9044674B126462868C0438001D8
:102C80001FD4E86CD8B110280FD0202812D03028DB
:102C900015D0012414E0D5F8AC20D9F8001021F0AB
:102CA000E0611143C9F80010E7E7386840F40030EC
:102CB000386004E00198022102F0EEF8044674B195
:102CC00026462888C043C0042BD4286EB0F5005F88
:102CD00020D00DDCA0B1B0F5805F0FD115E06B48BE
:102CE000EA6C2030016821F0300111430160E8E70F
:102CF000B0F5405F13D0B0F5804F10D001240FE045
:102D0000386840F40030386009E00198002102F092
:102D1000C3F803E00098002102F04EF904468CB19C
:102D200026462888C043800429D4686EB0F5403F09
:102D300023D010DC08B3B0F5803F14D0B0F5003FCD
:102D40000FD115E02A6ED8F8001021F4E0411143AC
:102D5000C8F80010E5E7B0F5802F0ED0B0F5A02F31
:102D60000BD001240AE00198012102F095F803E05C
:102D70000098012102F020F9044694B126462888E3
:102D8000C04340042AD4D5F8B000B0F1405F23D04E
:102D900010DC08B3B0F1805F14D0B0F1005F0FD148
:102DA00015E06A6ED8F8001021F4E0211143C8F84C
:102DB0000010E4E7B0F1804F0ED0B0F1A04F0BD07F
:102DC00001240AE00198012102F066F803E000986E
:102DD000012102F0F1F8044674B126462888C04368
:102DE00000041FD4286FD8B1B0F1805F0ED0B0F1CD
:102DF000005F10D0012414E0D5F8B020D9F80010FD
:102E000021F0E0411143C9F80010E7E7386840F4C9
:102E10000030386004E00198012102F03DF80446DA
:102E200074B126462868C043C0011ED4A86CD0B136
:102E300001280ED0022811D0032814D0012413E059
:102E40002A6FD8F8001021F040511143C8F8001043
:102E5000E8E7386840F40030386004E00198022167
:102E600002F01AF80446ACB126462868DFF81CB018
:102E7000C043ABF11C0B400252D40548016841F439
:102E800080710160FEF738FE824611E02C44025842
:102E900000480258FA48AA6C016821F00301114366
:102EA0000160E2E7FEF728FEA0EB0A00642835D8AF
:102EB000F4480068C005F5D58CBBDFF8C4A3B5F8AD
:102EC000B4100AF1240ADAF8000001F4407100F4A9
:102ED0004070884211D0DAF80010DAF8002021F4AE
:102EE000407142F48032CAF80020DAF8002022F45F
:102EF0008032CAF80020CAF80010D5F8B400B0F546
:102F0000807F1AD1FEF7F8FD029012E0FEF7F4FD83
:102F10000299411A41F2883081420AD90324264697
:102F20002878DFF85CA3C0430AF1080AC00721D063
:102F30003CE0DAF800008007E8D5D5F8B410C1F31A
:102F40000120032858460DD0016821F47C5101600E
:102F5000B5F8B420DAF80010C2F30B021143CAF836
:102F60000010DDE7C84A036802EA111223F47C511D
:102F70001143ECE7E86F182816D005DCA0B108284B
:102F800008D0102804D10AE020280DD028280BD022
:102F900001240AE00198012101F07EFF03E000987E
:102FA000012102F009F8044664B126462878C0439E
:102FB00080071ED4A86F062819D2DFE800F0160C8F
:102FC00011161616EA6FDAF8001021F038011143D5
:102FD000CAF80010EAE70198012101F05DFF03E063
:102FE0000098012101F0E8FF04467CB100E00124D3
:102FF00026462878C04340071FD4D5F894000628F9
:1030000019D2DFE800F0160C11161616AA6FDAF8BE
:10301000001021F007011143CAF80010E9E70198F8
:10302000012101F039FF03E00098012101F0C4FF04
:103030000446A4B100E0012426462878C043800657
:103040002BD4D5F89000B0F1405F24D011DC10B340
:10305000B0F1805F15D0B0F1005F10D116E0D5F867
:103060009420D9F8001021F007011143C9F800108D
:10307000E3E7B0F1804F0ED0B0F1A04F0BD00124A8
:103080000AE00198002101F007FF03E00098022107
:1030900001F092FF044694B126462878C0434006CA
:1030A0002BD4D5F89C00B0F5406F24D011DC10B3C0
:1030B000B0F5806F15D0B0F5006F10D116E0D5F8DF
:1030C0009020DAF8001021F0E0411143CAF8001016
:1030D000E3E7B0F5805F0ED0B0F5A05F0BD0012420
:1030E0000AE00198002101F0D7FE03E000980221D8
:1030F00001F062FF044694B126462878C0430006DA
:103100002BD4D5F8A000B0F5C04F24D011DC10B3FB
:10311000B0F5005F15D0B0F5804F10D116E0D5F8AE
:103120009C20D9F8001021F4E0511143C9F8001097
:10313000E3E7B0F5004F0ED0B0F5204F0BD00124DF
:103140000AE00198002101F0A7FE03E000980221A7
:1031500001F032FF044654B126462878C0430007E8
:103160001ED4D5F88400B0F5805F0AD00FE0D5F802
:10317000A020D9F8001021F460411143C9F80010D3
:10318000EBE70098022101F017FF00B10126D5F806
:103190008420DAF8001021F440511143CAF80010DD
:1031A0002878C043C00613D4D5F89800B0F5807FC6
:1031B00005D10098022101F0FFFE00B10126D5F8EB
:1031C0009820D9F8001021F440711143C9F800107B
:1031D0002868C043000316D4D5F8A40038B1B0F570
:1031E000803F09D0B0F5003F0BD001240AE00198E0
:1031F000002101F051FE03E00098022101F0DCFE05
:1032000004468CB126462868C043400322D4D5F832
:103210008800B0F5801F11D0B0F5001F13D0B0F5B5
:10322000401F15D0012414E0D5F8A420D9F80010CF
:1032300021F440311143C9F80010E4E7386840F444
:103240000030386004E00098012101F0B5FE04462A
:103250005CB126462868C043C00323D4286DA8B1BA
:10326000B0F5803F17D001241BE0D5F88820DAF8AC
:10327000001021F440111143CAF80010EAE70000E1
:103280004C44025800480258CFFFFF00386840F411
:103290000030386004E00198022101F0FDFD044691
:1032A000E4B126462868C043800005D40098022176
:1032B00001F082FE00B101262868C04380031BD4C0
:1032C000D5F88000B0B1B0F5807F0FD0B0F5007FA9
:1032D00010D0B0F5407F0DD001240CE05A482A6D83
:1032E000016821F4803111430160DBE7386840F464
:1032F00000303860ECB326462868C043C00207D4CB
:103300006A6FD8F8001021F000411143C8F800108E
:103310002868C043C00008D4D5F8B820DBF80010F6
:1033200021F480411143CBF800102868C04380028B
:1033300007D4EA6ED8F8001021F080711143C8F864
:1033400000102868C04340000CD4DBF8001021F4C2
:103350000041CBF80010DBF80010D5F8BC20114379
:10336000CBF800102868C04308D437486A6D01685C
:1033700000E018E021F04051114301602868C0438B
:10338000000208D4D5F88C20DAF8001021F44001AE
:103390001143CAF8001028790024C04300F001004E
:1033A00020430AD00FE0D5F88020DAF8001021F48D
:1033B00040711143CAF800109EE70198002101F006
:1033C0006BFD00B106462879C04300F0020020439F
:1033D00005D10198012101F05FFD00B10646287971
:1033E000C04300F00400204305D10198022101F000
:1033F00053FD00B106462879C04300F00800204381
:1034000005D10098002101F0D7FD00B106462879CA
:10341000C04300F01000204305D10098012101F0C5
:10342000CBFD00B106462879C04300F020000443DC
:1034300004D10098022101F0BFFD00B916B10120AE
:10344000BDE8FE8F0020FBE74C4402582DE9F05FF9
:1034500004000F467ED0DFF83882D8F8000000F074
:103460000F00B8420CD2D8F8001021F00F013943F8
:10347000C8F80010D8F8000000F00F00B84269D179
:103480002078844D40070AD52069296801F0700131
:10349000884204D9296821F070010143296020780D
:1034A0007C4E361D00070AD56069316801F0700155
:1034B000884204D9316821F07001014331602078DD
:1034C000C0060AD5A069316801F4E061884204D9D8
:1034D000316821F4E061014331602078DFF8B4B154
:1034E00080060BF1080B0CD5E1695846DBF800208B
:1034F00002F07002914204D9026822F070020A437D
:103500000260207880070AD5E068296801F00F0181
:10351000884204D9296821F00F01014329602078ED
:10352000C0073ED05B49A2682868183920F4706053
:10353000104328606068022818D0032819D0096851
:10354000012819D0490700294ADADFF848A1AAF171
:10355000080A00E044E0DAF8002022F00702024303
:10356000CAF80020FEF7C8FA814612E0096889030C
:10357000E9E709688901E6E7C905E4E7FEF7BCFA6F
:10358000A0EB090141F28830814202D90320BDE855
:10359000F09F6168DAF8000000F03800B0EBC10F6E
:1035A000ECD1207880070AD5E068296801F00F0186
:1035B000884204D2296821F00F0101432960D8F81C
:1035C0000010404601F00F01B9420BD9016821F00B
:1035D0000F0139430160006800F00F00B84201D0CC
:1035E0000120D4E7207840070AD52069296801F036
:1035F0007001884204D2296821F0700101432960DA
:10360000207800070AD56069316801F070018842AE
:1036100004D2316821F07001014331602078C00686
:103620000AD5A069316801F4E061884204D23168AA
:1036300021F4E06101433160207880060CD5E16916
:103640005846DBF8002002F07002914204D2026872
:1036500022F070020A43026000F088F80E492A68DE
:103660002B68C2F3032203F00F038A5CC95C02F0EB
:103670001F0201F01F01D040084A20FA01F1116039
:103680000749086007480068BDE8F05FFEF76ABBBD
:103690000020005218440258088F00089C000024A3
:1036A000980000249000002470B5144C3F22026062
:1036B000124A24680832131D114D04F007044460B7
:1036C00016681C1D06F470668660166806F00F0604
:1036D000C660126802F0700202611A6802F070029D
:1036E00042611A6802F4E0628261226802F07002AC
:1036F000C261286800F00F00086070BD10440258D5
:103700000020005230B500F031F80B4A0B490C4B49
:1037100015681468C5F3032204F00F048A5C095D80
:1037200002F01F0201F01F01D040064A20FA01F109
:1037300019601060084630BD18440258088F000810
:103740009C0000249800002400B5FFF7DBFF05492A
:103750000968054AC1F30211515C01F01F01C8401C
:1037600000BD00001C440258088F0008454970B590
:1037700045480968434B103B11F0380208D001114D
:10378000082A03D0102A0BD0182A0BD0084670BD87
:1037900019688906FBD51968C1F3C101C84070BD1D
:1037A0003A4870BD3749374D18310C1D24350A6829
:1037B000096826682D6802F0030406F00102C1F3CF
:1037C0000511C5F3CC0515FB02F200EE102AB8EE88
:1037D000400AE9B32F4ADFED2E0AB7EE001A6CB1AA
:1037E000DFED2D1A012C01D0022C43D002EE101A6D
:1037F0001068F8EE422A81EEA22A1EE01C68A40698
:1038000011D51B6801EE901A1168C3F3C103F8EEDD
:10381000612AD84001EE900AC1F30800F8EE611A5F
:1038200081EEA22A0BE001EE901ADFED1C2A00BF08
:10383000F8EE611A106882EEA12AC0F3080001EECA
:10384000900AF8EE611A40EE201A31EE810A00E08B
:1038500015E022EE000A1068C0F34620401C00EE7E
:10386000900AF8EE600A80EE201ABCEEC10A10EE53
:10387000100A70BD01EE901ADFED092AD8E700208A
:1038800070BD0000104402580090D00300127A006E
:1038900000000039304402580024744A0024744C5B
:1038A0000024F44A2DE9F05F04007DD0FF4F20781A
:1038B000FE4D1837DFF8F493103DC00748D0D9F813
:1038C0000000396800F03800102815D0182803D1FE
:1038D00001F0030002280FD06068B0F5803F12D0DD
:1038E00010B1B0F5A02F18D0286820F480302860DF
:1038F000286820F4802009E02868800328D56068C3
:103900000028D2D024E0286840F480302860606825
:1039100088B1FEF7F1F8064609E0286840F48020F7
:103920002860F0E7FEF7E8F8801B64286FD8286865
:103930008003F7D50CE0FEF7DFF8064605E000BF90
:10394000FEF7DAF8801B6428F0D828688003F7D4E3
:10395000207841F20308D54E0C3E800769D5D9F88E
:103960000000396810F038000ED0182801D18807FF
:103970000AD0E06890B3296821F019010143296059
:10398000FEF7BAF8824631E02868400702D5E068C1
:1039900000288AD0E168286820F0190008432860D0
:1039A000FEF7AAF8824607E0DFE000BFFEF7A4F8C2
:1039B000A0EB0A000228B9D828684007F6D500BF56
:1039C000FEF794F840451BD82069402812D0316892
:1039D00021F47C3141EA003030602AE018E000BF79
:1039E000FEF78AF8A0EB0A0002289FD82868400753
:1039F000F6D5E5E7306820F47C3040F40030EBE7A2
:103A0000207C316821F0FE4141EA0060E4E70DE1ED
:103A1000286820F001002860FEF76EF8824605E075
:103A2000FEF76AF8A0EB0A0002288DD82868400744
:103A3000F6D42078C0065DD5D9F80000DFF86CB266
:103A4000396800F03800ABF1040B082810D01828B2
:103A500003D101F0030001280AD0E069002828689A
:103A600038D040F080002860FEF746F8824623E018
:103A70002868C00523D5E069802876D11FE0206A38
:103A8000202821D0316821F0F84141EA806030607F
:103A900030E000BF94F82010DBF8002022F07C52C8
:103AA00042EA0161CBF8001024E000BFFEF724F8E1
:103AB000A0EB0A00022898D82868C005F6D5FEF7C2
:103AC00015F84045E6D8DAE7306820F0F84040F0D5
:103AD0008040DCE720F080002860FEF70DF8064605
:103AE00005E000BFFEF708F8801B02289DD8286873
:103AF000C005F7D42078000729D56C486169643087
:103B000000298046016811D041F001010160FDF7F4
:103B1000F3FF064605E000BFFDF7EEFF801B02281D
:103B2000C9D8D8F800008007F6D510E021F00101CF
:103B30000160FDF7E1FF064605E000BFFDF7DCFF91
:103B4000801B022872D8D8F800008007F6D42078AD
:103B5000800623D5A0690028286810D040F4805042
:103B60002860FDF7C9FF064605E036E1FDF7C4FF12
:103B7000801B02285AD828688004F7D50EE020F46C
:103B800080502860FDF7B8FF064604E0FDF7B4FF5B
:103B9000801B02284AD828688004F7D42078400780
:103BA0004FD5DFF80C81D8F8001041F48071C8F8C7
:103BB0000010FDF7A1FF064605E000BFFDF79CFFE2
:103BC000801B642832D8D8F80000C005F6D5374EDF
:103BD000A068603601280AD008B1052813D03068E3
:103BE00020F001003060306820F0040002E030680E
:103BF00040F001003060A06841F2883A90B1FDF7D2
:103C00007BFF80460AE0306840F004003060EEE759
:103C1000FDF772FFA0EB0801514507D83068800717
:103C2000F6D50EE0FDF768FF804607E084E000BFB0
:103C3000FDF762FFA0EB080151457DD83068800791
:103C4000F6D4606AB0B3DFF86480D9F8001008F1E8
:103C500020084FF6F87B08F10409C1F3C2010329DB
:103C6000A8F1040A69D00228286820F08070286032
:103C700003D0FDF741FF044684E0FDF73DFF064613
:103C800005E000BFFDF738FF801B022877D82868C1
:103C90008001F7D4E26A40F2F331386854F8283FE3
:103CA000884340EA02101843386004E01044025888
:103CB00000480258B5E0217B434622894FF4FE0CB0
:103CC000208A4FF0FE474902267D521E401EA1F574
:103CD0000071C2F308088AB2761E0CEA004042EA7C
:103CE00008020243504607EA06610A431A60DAF8FE
:103CF000002022F00102CAF80020D9F80020266A2C
:103D000022EA0B0242EAC602C9F80020DAF80010E3
:103D1000A26921F00C011143CAF800100168E269A0
:103D200021F0020111430160016841F4803101601A
:103D3000016841F4003101E021E027E00160016801
:103D400041F480210160016841F0010101602868AF
:103D500040F080702860FDF7CFFE044605E000BF0C
:103D6000FDF7CAFE001B022809D828688001F7D594
:103D700057E000BFFDF7C0FE001B022802D9032058
:103D8000BDE8F09F28688001F4D44AE03968012832
:103D9000D8F8000021D0A26A01F0030393421CD19D
:103DA000E26AC1F305118A4217D1216BC0F3080200
:103DB000491E8A4211D1616BC0F34622491E9142CD
:103DC0000BD1A16BC0F30642491E914205D1E16BB4
:103DD000C0F30660491E814201D00120D0E7A16CEA
:103DE0004E46D9F80000C0F3CC00814219D0DAF871
:103DF0000000554620F00100CAF80000FDF77CFEE7
:103E00004FEA0007FDF778FEB842FBD0A26C30689D
:103E100020EA0B0040EAC2003060286840F0010050
:103E200028600020ACE700002DE9F047040029D00D
:103E3000594A4FF000092068584B594D9042C4F838
:103E4000289006D0984204D0A84202D0E1680F29F9
:103E500018D8E1684FF0010AE76B0831C9080AEB8E
:103E600057167143904205D0984203D0A84201D022
:103E7000082907D8904203D0984201D0A84204D123
:103E8000102902D90120BDE8F08794F8810020B9FB
:103E9000204684F8809000F085F8022084F88100A4
:103EA0002068016821F0010101602068A169826831
:103EB000B1F1806F02F4F81110D16268B2F5800F91
:103EC00001D01AB10AE0A26B22B107E0A26BB2F1F5
:103ED000805F03D1026842F4805202606068400251
:103EE00009D5E068072806D32068236D026822F40C
:103EF00080721A4303E02068026822F48072026034
:103F0000A66AE069E26B25683043E3680A43104320
:103F10001843A860D4E90D02D4E90581636A2569D4
:103F20001843D4F820C00A43266810432843A56DDF
:103F3000D4E90172D4E9123140EA080040EA0C00E9
:103F400038430843104318432843F060606868B959
:103F50002068816821F4C05141F4006181602068CB
:103F6000816821F4C06141F4806181602068016D45
:103F700021F0010101656068400206D52068626D8C
:103F8000C16821F000411143C160C4F8849084F8F5
:103F900081A0002077E70000003001400038004099
:103FA000003C0040F0B5B7B00446142130A8FCF73F
:103FB000B0FAC0216846FCF7ACFA22492068884272
:103FC0003DD18114002018900446CDE900106846C8
:103FD000FEF766FD08B1FCF7AAFD1B48016841F435
:103FE00080510160006800F4805035901648103808
:103FF000016841F008010160016801F00801359194
:10400000016841F0010101600068022532AA00F058
:10401000010035908020CDE9300503260B480527A7
:1040200082E8D00030A9FDF73DFC602032AACDE93E
:104030003005074830A982E8D000FDF733FC37B0DF
:10404000F0BD000000300140F0440258000C02585E
:10405000000002587047704770470000F0B590F8B4
:104060003C20012A3BD01F4E012480F83C40022214
:1040700080F83D2002681C4D5368B242D2F808C057
:1040800001D0AA4203D14F6823F470033B430F6869
:1040900023F070031F4357600268B24213D0B2F19D
:1040A000804F10D0114B9A420DD0114B9A420AD03A
:1040B000104B9A4207D0AA4205D00F4B9A4202D029
:1040C0000E4B9A4204D189682CF080031943916009
:1040D000002180F83D4080F83C100846F0BD0220E9
:1040E000F0BD000000000140000401400004004059
:1040F00000080040000C0040001800400040014053
:1041000010B5040003D094F83D0010B107E0012081
:1041100010BD002084F83C00204600F023F8022067
:1041200084F83D002068211D01F0CAF8012084F8C0
:10413000480084F83E0084F83F0084F8400084F88A
:10414000410084F8420084F8430084F8440084F875
:10415000450084F8460084F8470084F83D000020BC
:1041600010BD00002DE9F84F4C490025026840279A
:1041700004464B488A424FF4806144D1026842F0C1
:104180000202026000684FF4006A464E4FF4005B82
:1041900000F00200009006F10C028946CB014FF0BE
:1041A0001908B760304682E8200EC6E90753DFF8E9
:1041B000F8C07562C6E900C8FDF732F808B1FCF72F
:1041C000B6FCDFF8E0804FF01A0C374908F17808A8
:1041D000E66208F10C02B46318314046C8F80010DA
:1041E0004FF4003182E8200EC0E90751C8E901C749
:1041F000C8F82450FDF714F808B1FCF798FC4046C5
:10420000C4F8308047E0294B9A4245D1026842F019
:104210000802026000684FF4805A224E4FF4804B2F
:1042200000F008000090F036894606F10C02DFF835
:1042300078C09B014FF03708B7600CF1300C82E872
:10424000200EC6E9075375623046C6E900C8FCF780
:10425000E7FF08B1FCF76BFCDFF854804FF0380C37
:10426000114908F10C0266624831B463C8F80010C5
:104270004FF44031404682E8200EC0E90751C8E9BA
:1042800001C7C8F82450FCF7CBFF08B1FCF74FFC7E
:104290004046C4F828808463BDE8F88F00040040DD
:1042A000E84402580405002410000240000C0040BD
:1042B0006C06002490F83D10012901D001207047C0
:1042C000174A022180F83D100168CB6843F00103D2
:1042D000CB600068904214D0B0F1804F11D01149EA
:1042E00088420ED0104988420BD01049884208D02D
:1042F0000F49884205D00F49884202D00E498842B2
:1043000007D181680D4A1140062906D0B1F5803FDA
:1043100003D0016841F001010160002070470000F6
:10432000000001400004004000080040000C004074
:104330000004014000180040004001400700010057
:1043400070B5044690F83C000025012814D03A4B83
:10435000012684F83C60022084F83D0022689068C1
:10436000184020F47F409060086870282FD010DC3F
:1043700010F00F0F03D022E04FF0020070BD4FEAA3
:104380002012072A1BD2DFE802F0535353534B3954
:104390004100B0F1101F4BD009DCB0F5805F0FD0A9
:1043A000B0F5005F1ED0B0F5801F08D140E0A0F549
:1043B000801120393CD010293AD0202938D001254D
:1043C00084F83D60002084F83C00284670BD4A68AF
:1043D0002068D1E9021300F0E8FF2068816841F00D
:1043E000770109E04A682068D1E9021300F0DDFF97
:1043F0002068816841F480418160E1E7CA684968CA
:10440000206801F07FF92068502106E0CA684968F9
:10441000206801F088F92068602100F0CFFFCFE725
:10442000CA684968206801F06DF920684021F4E706
:10443000226801461046F0E788FFCEFF70472DE95D
:10444000F041044600680027C6680569A90713D52E
:10445000B10711D5FA1E0261012121772068806918
:104460008007204602D0FFF7E9FF04E000F0CAF819
:10447000204600F08CF92777680716D5700714D509
:10448000226802206FF004011161207720688069A2
:1044900010F4407F204602D0FFF7D0FF04E000F088
:1044A000B1F8204600F073F92777280715D53007B3
:1044B00013D5226804206FF008011161207720686D
:1044C000C0698007204602D0FFF7B8FF04E000F083
:1044D00099F8204600F05BF92777E80616D5F00634
:1044E00014D5226808206FF0100111612077206830
:1044F000C06910F4407F204602D0FFF79FFF04E020
:1045000000F080F8204600F042F92777E80708D04D
:10451000F00706D021686FF001000861204600F026
:10452000BFF9280601D4A80408D5300606D52168AD
:104530006FF4025008612046FFF78DFDE80508D5AD
:10454000300606D521686FF4807008612046FFF7B9
:1045500081FD680608D5700606D521686FF0400019
:104560000861204600F0A3F9A8060AD5B00608D5D0
:1045700021686FF0200008612046BDE8F041FFF798
:104580006BBDBDE8F081000030B587B00446142152
:104590006846FBF7BEFF24680023164D0320144A2B
:1045A0000221AC420ED1146844F002041460126877
:1045B00003AC8DE80B0002F0020284E807000E480D
:1045C000694610E00D4DAC420FD1146844F001046F
:1045D0001460126803AC8DE80B0002F0010284E85D
:1045E000070007486946FDF75DF907B030BD0000D8
:1045F000E04402580004004000040258000C00404F
:1046000000000258704770B5044690F83C00002640
:104610000D4601280BD0012084F83C000C2A4AD01A
:1046200007DC82B1042A20D0082A06D131E002201A
:1046300070BD102A53D0142A63D00126002084F8BC
:104640003C00304670BD206800F0C2FE20688169E1
:1046500041F0080181612068816921F004018161D4
:1046600020682A698169114311E0206800F002FF87
:104670002068816941F4006181612068816921F4C9
:104680008061816120682969826942EA0121816132
:10469000D4E7206800F03AFF2068C16941F00801C2
:1046A000C1612068C16921F00401C16120682A69E3
:1046B000C169114311E0206800F074FF2068C169EE
:1046C00041F40061C1612068C16921F48061C16168
:1046D00020682969C26942EA0121C161AEE7206808
:1046E00000F09CFF2068416D41F0080141652068A1
:1046F000416D21F00401416520682A69416D114333
:1047000011E0206800F0C4FF2068416D41F40061B1
:1047100041652068416D21F4806141652068296907
:10472000426D42EA0121416588E710B5040003D0DB
:1047300094F83D0010B107E0012010BD002084F87E
:104740003C00204600F022F8022084F83D0020685A
:10475000211D00F0B5FD012084F8480084F83E00DA
:1047600084F83F0084F8400084F8410084F8420057
:1047700084F8430084F8440084F8450084F8460037
:1047800084F8470084F83D00002010BD7047704752
:1047900030B504464FF0020269B1042912D008294D
:1047A00017D00C291CD0102921D094F843000128DF
:1047B00024D0012030BD94F83E000128F9D184F8BE
:1047C0003E201DE094F83F000128F2D184F83F20FC
:1047D00016E094F840000128EBD184F840200FE067
:1047E00094F841000128E4D184F8412008E094F8CD
:1047F00042000128DDD184F8422001E084F8432002
:104800000122206800F0C4FD1B4B20681B491C4A94
:10481000984209D0884207D0904205D0194DA8424D
:1048200002D0194DA84203D1456C45F400454564BA
:104830002068984212D0B0F1804F0FD0134B9842AD
:104840000CD0134B984209D0124B984206D08842A4
:1048500004D01149884201D0904207D181680F4AA3
:104860001140062906D0B1F5803F03D0016841F020
:1048700001010160002030BD000001400004014042
:104880000040014000440140004801400004004055
:1048900000080040000C0040001800400700010024
:1048A0000068B0F1804F01D1FDF726BA704770471C
:1048B000FEE70000F0B500230A251C463026372706
:1048C00011E000BFB5EB107F02D906EB107C01E0D0
:1048D00007EB107C01F813C001EB430C00015B1CDB
:1048E0008CF80140DBB29342ECD3F0BD154808B51B
:1048F000016841F00101016000680022052100F01B
:10490000010000900B20FDF7E1FA0B20FDF7D0FA33
:10491000002205210C20FDF7D9FA0C20FDF7C8FA7A
:10492000002205210D20FDF7D1FA0D20FDF7C0FA78
:10493000002205210E20FDF7C9FABDE808400E202F
:10494000FDF7B6BAD84402580B4A00210B4810B5FF
:1049500002F0ACFD0A4C0021074A243220600948CD
:1049600002F0A4FD044A002160600748483202F0CA
:104970009DFDA06010BD0000948E0008E35000086B
:1049800000000024F15000080D5100082DE9F0410D
:1049900086B014216846FBF7BCFD2A48016841F047
:1049A00001010160016801F001010591016841F018
:1049B00004010160016801F004010591016841F002
:1049C00010010160016801F010010591016841F0DA
:1049D00080010160016801F080010591016841F0EA
:1049E00008010160016801F008010591016841F0CA
:1049F0000201016000680122134FD60300F002009B
:104A0000314605903846FDF76BF8DFF8408001220B
:104A100018214046FDF764F80024009601256946F8
:104A20003846CDE901540394FCF73CFF1820009070
:104A3000CDE90154694640460394FCF733FF06B0C4
:104A4000BDE8F081E0440258000802580010025806
:104A50001348002110B5114C0123124A0460C0E92B
:104A60000121C0E9033141618161C1610162FDF74A
:104A70009FF808B1FCF75BF809480021FDF742F800
:104A800008B1FCF754F806480021FDF767F8002844
:104A900003D0BDE81040FCF74AB810BD00580040F4
:104AA00090030024AF74700070B5154807224FF4CE
:104AB0008005124E00212C01C0E90212016133046D
:104AC000C0E90514C0E90731416222018162C16277
:104AD000C0E90D21C163016441648164C164016561
:104AE00041658165C0E90065FFF79EF9002803D0A4
:104AF000BDE87040FCF71BB870BD000000300140FD
:104B0000E403002410B58EB000241C21009407A8F3
:104B1000019402940394049405940694FBF7F9FC21
:104B20002148D4211F4AC0E90024C0E902410461A0
:104B30008461FFF7E5FA08B1FBF7F9FF4FF4805005
:104B4000009019486946FFF7FBFB08B1FBF7EFFF40
:104B50001548FFF7EAFD08B1FBF7E9FF124804A981
:104B600004940694FFF77AFA08B1FBF7E0FF60209F
:104B7000CDE907040C48082207A909940B94FFF714
:104B800042FD08B1FBF7D3FF07480C2207A9FFF746
:104B90003AFD08B1FBF7CBFF0348FFF7F5FC0EB079
:104BA00010BD0000000400406C04002410B58EB05D
:104BB00000241C21009407A80194029403940494F7
:104BC00005940694FBF7A5FC2148D4211F4AC0E9AF
:104BD0000024C0E9024104618461FFF791FA08B141
:104BE000FBF7A5FF4FF48050009019486946FFF786
:104BF000A7FB08B1FBF79BFF1548FFF796FD08B12F
:104C0000FBF795FF124804A904940694FFF726FACF
:104C100008B1FBF78CFF6020CDE907040C480022A7
:104C200007A909940B94FFF7EEFC08B1FBF77FFF8F
:104C30000748042207A9FFF7E6FC08B1FBF777FF56
:104C40000348FFF7A1FC0EB010BD0000000C0040AF
:104C5000B804002410490022104810B501F080F972
:104C600008B1FBF764FF0E490C4801F096FB08B150
:104C7000FBF75DFF0B49094800F034FF08B1FBF773
:104C800056FF064801F00EFC08B1FBF750FFBDE8E7
:104C90001040FDF7FDBE000024000024E4060024BF
:104CA0007801002478000024FEE703F03FF902F0C9
:104CB00045FC40F6B83602F0B3FB022819D00024B8
:104CC0000025002003F09CF802F0AAFB022814D073
:104CD0000120FCF7D5FD6D1CB542F2D33C2003F05A
:104CE0008FF802F09DFB02280CD00120FCF7C8FDD4
:104CF000F4E702F0A5FB0446E2E7641C204602F05C
:104D000077FBE8E7641C204602F072FBE6E7FEE76B
:104D100003480168491C01600248FDF76DBA0000B4
:104D20000C000024E00B00242DE9F04104468079BA
:104D30000D462027236801284FF4004604F29C42C8
:104D400003EB4511D3F840C0D1F8080B09D0DFF8C8
:104D50009CE0F4453AD1020433D500BFC1F8086B9A
:104D600040E0234B5FEA007E04D59C453AD900041D
:104D7000F4D437E05FEA806E02D5C1F8087B31E0F9
:104D800010F0280F2ED19C4501D90004E6D4D1F8AB
:104D9000101B05EBC50004EB8000C1F31201D0F835
:104DA0007432A3EB0101C0F8681200F51570ADB9BB
:104DB00003691BB1C2681144C1600FE02068012182
:104DC0000AE080060AD5C1F8087B07E035B9D4F8B7
:104DD000640218B90021184601F0E4FE2046E9B249
:104DE000FDF7F5F80020BDE8F08100000A31544FCE
:104DF0000A30544F2DE9F84F0E460568814601EB05
:104E0000C60100EB8104D4E909201434904202D990
:104E10000120BDE8F88FA168101A814200D208462F
:104E2000C01C05EB461887081BE000BFA268A0EB7A
:104E3000010A524500D2924699F806100AF1030081
:104E400000911FFA8AF3E16887082846F2B202F05F
:104E5000EBF9E16801EB0A00E060616901EB0A002F
:104E60006061D8F8180980B2B84205D3D4E90401CA
:104E7000814201D20028D9D1D4E90401884208D85E
:104E8000D5F83418012006F00F0290408143C5F890
:104E900034180020BDE700002DE9F047454D0446D9
:104EA00089464FF0000A2868C04380070AD0414E67
:104EB000283E306820F080603060FCF71DFE074619
:104EC000B04608E00120BDE8F08700BFFCF714FE03
:104ED000C01B022867D8D8F800000001F6D420686B
:104EE00029684FF4FE0721F47C313E0241EA00308C
:104EF0002860207AA389B4F804C040022D4D2D49C2
:104F00005B1E227CACF1010C1035091DA0F5007070
:104F100080B2521ECCF3080C07EA034340EA0C00AF
:104F2000184306EA0262104328600868626920F0AC
:104F3000C000104308600A68A06922F02002024302
:104F40000A60281D0A6822F010020A6002684FF603
:104F5000F873E4699A4342EAC40202600868B9F14E
:104F6000000F40F010020A6011D00868B9F1010F7B
:104F700011D040F400100860D8F80000444640F01A
:104F80008060C8F80000FCF7B7FD05460DE0086832
:104F900040F40020EFE740F48010ECE7FCF7ACFDB4
:104FA000401B022801D903208DE720680001F5D5B8
:104FB000504688E7284402582DE9F047454D0446FD
:104FC00089464FF0000A2868C04380070AD0414E46
:104FD000283E306820F080503060FCF78DFD074699
:104FE000B04608E00120BDE8F08700BFFCF784FD73
:104FF000C01B022867D8D8F800008000F6D42088AB
:1050000029684FF4FE0721F07C713E0241EA00500E
:105010002860207AA389B4F804C040022D4D2D49A0
:105020005B1E227CACF1010C1835091DA0F5007047
:1050300080B2521ECCF3080C07EA034340EA0C008E
:10504000184306EA0262104328600868626920F487
:105050004060104308600A68A06922F400720243AD
:105060000A60281D0A6822F480720A6002684FF6FE
:10507000F873E4699A4342EAC40202600868B9F12D
:10508000000F40F480720A6011D00868B9F1010F76
:1050900011D040F080700860D8F80000444640F01D
:1050A0008050C8F80000FCF727FD05460DE00868B1
:1050B00040F48000EFE740F40000ECE7FCF71CFD53
:1050C000401B022801D903208DE720688000F5D518
:1050D000504688E7284402580178407841EA002089
:1050E0007047FFF7E2FD012002F074F9F9E70000D4
:1050F000054C4FF4FA7508212046FCF7E9FC2846D8
:1051000002F068F9F7E7000000100258012002F0F1
:1051100061F9FBE74FF0E02010B5006903F0F8FCFF
:10512000012803D0BDE8104003F01CBA10BD0000F8
:10513000F0B59DB04C216846FBF7EBF9202113A890
:10514000FBF7E7F90220FDF779FC21490A682148BD
:1051500022F001020A600968016821F4404141F42B
:10516000804101600168002401F440411B91016805
:10517000C9438904FBD4022009900121C2033C23C6
:105180000425CDE900120AAA0A260C2782E86B0042
:10519000CDE910740F9068461294FEF783FB08B1B6
:1051A00072B6FEE713AB3F200321502283E81300C1
:1051B00016940221CDE9174213A819941A94FEF708
:1051C00045F9002801D072B6FEE71DB0F0BD000021
:1051D0002C040058184802582C48F0B52C4A016895
:1051E00041F470010160106800F00F00072804D23C
:1051F000106820F00F00C01D106026490020254CCB
:1052000010340B68244D43F001030B6020600B68E1
:105210002B400B60136803F00F03072B04D91368AE
:1052200023F00F03DB1D13601A4C1C4A18341C4B6F
:10523000261D371D2060174C1A4D28343060261D5E
:105240003860371D23603B1D35601C1D3A60251DED
:105250002E1D1860331D22602860326018600A68B5
:105260000C4B114C22F4802260330A6018602068D5
:105270006FF30F00B0F1005F03D20C490120C1F8B9
:10528000080143F2D2000A490860F0BD88ED00E051
:1052900000200052004402587FEDF6EA800201012E
:1052A000000202020000FF010010005C00800051BB
:1052B000004000520148FFF7C2B80000C422002499
:1052C0002DE9F0472A4B4FF0804A2A4D0268984258
:1052D000294E2A4F2A4C09D0504507D0A84205D064
:1052E000B04203D0B84201D0A04205D1D1F804C0E9
:1052F00022F070024CEA0202DFF888C0DFF88880F2
:105300009842DFF888900FD050450DD0A8420BD0BE
:10531000B04209D0B84207D0A04205D0604503D0C2
:10532000404501D0484503D1CD6822F440722A435C
:105330004D6922F080022A43026098428A68C26264
:105340000A68826207D0A04205D0604503D040457C
:1053500001D0484501D10969016301214161016919
:10536000C90703D0016921F001010161BDE8F0879F
:10537000000001400004004000080040000C004014
:105380000004014000400140004401400048014049
:1053900010B5046A012301F01F018B409C43046295
:1053A0008A40016A1143016210BD42EA0322836808
:1053B0000A4323F47F410A4382607047034B8268AB
:1053C0001A400A4342F00701816070478FFFCFFF08
:1053D0002DE9F04FDFF88480214EDFF88890DFF868
:1053E00088B0026A036AB042DFF880A022F0020CA3
:1053F0001F4F23F001020262426885698B680C68C6
:1054000005EA080525F0030543EA0C0344EA050410
:1054100007D0484505D0584503D0504501D0B84283
:1054200005D1CD6823F008031D4325F00403B042E5
:1054300007D0484505D0584503D0504501D0B84263
:1054400005D122F44076D1E9055235432A43426022
:105450008461496841630362BDE8F08F8FFFFEFFFE
:1054600000000140000401400040014000440140B0
:1054700000480140F0B5DFF87CE01F4C1F4D026A88
:10548000036AA04222F0200623F010030362426860
:105490008369D1F808C00F6803EA0E0323F4407E45
:1054A00046EA0C134EEA072601D0A84206D1CF687F
:1054B00023F0800343EA071323F04003A0420AD0FD
:1054C000A84208D00E4CA04205D00E4CA04202D0FB
:1054D0000D4CA04207D1D1E9054522F4406242EAD1
:1054E000840242EA85024260866149688163036200
:1054F000F0BD0000FF8FFFFE0000014000040140EE
:10550000004001400044014000480140F0B5DFF890
:105510007CE01F4D1F4E026A036AA84222F4007706
:1055200023F4807303624368C269D1F808C002EAB9
:105530000E020C6822F0030E47EA0C2244EA0E0425
:1055400001D0B04206D1CF6822F4006242EA0722BD
:1055500022F48062A8420AD0B04208D00E4DA84280
:1055600005D00E4DA84202D00D4DA84207D1D1E979
:10557000055623F4405343EA051343EA06134360F8
:10558000C4614968C1630262F0BD00008FFFFEFF85
:10559000000001400004014000400140004401407F
:1055A00000480140F0B5046A026A22F480520262A7
:1055B0004268C36924F40054DFF848C08E680D685F
:1055C00003EA0C03104F23F4407344EA0634B84254
:1055D00043EA05230BD00D4DA84208D00C4DA8423C
:1055E00005D00C4DA84202D00B4DA84204D14D6904
:1055F00022F4804242EA85124260C3614968016434
:105600000462F0BDFF8FFFFE000001400004014076
:10561000004001400044014000480140F0B5164FF1
:10562000164B026A046A984222F4003524F480334F
:1056300003624268436D0E890C6803EA070344EA7B
:10564000030445EA06430BD00D4DA84208D00D4D8A
:10565000A84205D00C4DA84202D00C4DA84204D15E
:105660004D6922F4803242EA05224260446549686D
:1056700081650362F0BD00008FFFFEFF0000014066
:105680000004014000400140004401400048014046
:10569000F0B5164F164B026A046A984224F4801340
:1056A000036222F400144268436D0E890D6803EA18
:1056B000070344EA065443EA05230BD00D4DA842E4
:1056C00008D00D4DA84205D00C4DA84202D00C4D7B
:1056D000A84204D14D6922F4802242EA8522426028
:1056E00043654968C1650462F0BD0000FF8FFFFE9D
:1056F000000001400004014000400140004401401E
:105700000048014010B5036A046A23F00A0324F03C
:105710000104046284690B4324F0F00141EA0211A0
:105720008161036210BD10B5036A046A23F0A0030F
:1057300024F010040462846943EA011124F47043E4
:1057400043EA02328261016210BD2DE9F0410C464C
:10575000D0F8D412D0F8C83200EB8101D1F8C012D1
:1057600029B304F00F02002702EB820500EB850647
:10577000B5694DB102EBC20203EB8202D269B5FBFF
:10578000F2F302FB1352A2B1C1F81472D0F8D42282
:1057900000EB8200D0F8C40203692BB1D1F80802F3
:1057A00001F50471224698470020BDE8F0810320EE
:1057B000FBE7002321461A46B76100F0D0FDF3E76E
:1057C00070B50546D0F8D40205EB8000D0F8C04291
:1057D00094B1284600F09FFCC4F80C02D5F8D4021E
:1057E00005EB8000D0F8C412D4F80402CA6804F5AE
:1057F00003719047002070BD032070BD70B5224D2D
:105800000446297800F0C8FB2878002600F00F0035
:1058100000EB800004EB800086842046697800F06D
:10582000BBFB687800F00F0000EB800004EB800009
:10583000A0F864612046A97800F0AEFBA87800F0DB
:105840000F0000EB800004EB80008684C684D4F84F
:10585000D40204EB8000D0F8C01299B1D0F8C40291
:1058600040688047D4F8D40204EB8000D0F8C0022E
:1058700000F09DFFD4F8D40204EB8000C0F8C062B1
:10588000C4F8BC62002070BD2401002410B5D0F81B
:10589000D41200EB8100D0F8C04284B1D0F8C41219
:1058A00059B194F80002FF2807D08B68214694F87C
:1058B00001229847FF2084F80002002010BD032039
:1058C00010BD00000A210180004870472801002413
:1058D00070B5822106460D4800F0E1FA0121054627
:1058E0000A4800F0DCFA81210446084800F0D7FAA3
:1058F0000DB11021A9714FF0400104B1A18000B198
:10590000818043203080014870BD000034010024B4
:1059100070B5822106460D4800F0C1FA0121054606
:105920000A4800F0BCFA81210446084800F0B7FAA2
:105930000DB11021A9714FF4007104B1A18000B123
:10594000818043203080014870BD00003401002474
:1059500070B5822106460D4800F0A1FA01210546E6
:105960000A4800F09CFA81210446084800F097FAA2
:105970000DB11021A9714FF0400104B1A18000B117
:10598000818043203080014870BD00003401002434
:105990002DE9F0474FF407750446284600F008FF4C
:1059A00006004FF0000965D02946FAF7B2FDD4F899
:1059B000D40201273C4D4FF4007A4FF0100804EB5D
:1059C0008000C0F8C062C4F8BC62207CF0B32978C3
:1059D00040230222204600F00CFC2878402300F0EF
:1059E0000F0000EB800004EB8000878402226978BE
:1059F000204600F0FEFB697808230322204601F0D0
:105A00000F0101EB810104EB8101A1F86471A97818
:105A100001F00F0101EB810104EB8101A1F8268067
:105A2000A97800F0E6FBA978C84601F00F0101EB68
:105A3000810104EB81018F84C6F80492D4F8D4026A
:105A400004EB8000D0F8C402006800E01AE006F51C
:105A500001768047C6F81080C6F8148032687AB1A3
:105A6000207CF8B140236978204600F0CEFB00206E
:105A7000BDE8F087D4F8D41204EB8101C1F8C092DC
:105A80000220F5E7297802225346204600F0B1FBB8
:105A90002878534600F00F0000EB800004EB8000F4
:105AA0008784A3E75346DEE72401002410B5D0F82D
:105AB000D41200EB8101D1F8C01259B1027C084C1C
:105AC000002AD1F8042207D04023617800F09DFB22
:105AD000002010BD032010BD4FF40073F5E7000057
