:020000040800F2
:1000000078540024F90300086937000839340008DF
:10001000953600083B060008CB3D000800000000B4
:10002000000000000000000000000000390300088C
:10003000B10D00080000000095030008913700088A
:100040001304000813040008130400081304000834
:100050001304000813040008130400081304000824
:100060001304000813040008130400083D060008E8
:100070004906000855060008610600081304000838
:1000800013040008130400081304000813040008F4
:1000900013040008130400081304000813040008E4
:1000A00013040008130400081304000813040008D4
:1000B000353900081304000813040008130400086D
:1000C00013040008130400081304000813040008B4
:1000D00013040008130400081304000813040008A4
:1000E00013040008130400080000000013040008B3
:1000F0001304000813040008130400081304000884
:100100001304000813040008130400081304000873
:100110001304000813040008130400081304000863
:100120001304000813040008130400081304000853
:100130001304000813040008130400081304000843
:1001400000000000000000000000000000000000AF
:100150001304000813040008130400081304000823
:100160001304000813040008130400081304000813
:100170001304000813040008130400080000000022
:1001800013040008130400081304000813040008F3
:1001900013040008130400081304000813040008E3
:1001A00013040008130400081304000813040008D3
:1001B00013040008130400081304000813040008C3
:1001C00013040008130400081304000813040008B3
:1001D00013040008130400081304000813040008A3
:1001E0001304000813040008130400081304000893
:1001F0001304000813040008130400081304000883
:100200001304000813040008130400081304000872
:100210001304000813040008130400081304000862
:100220001304000813040008130400080000000071
:100230001304000813040008000000001304000861
:100240001304000813040008130400081304000832
:100250001304000813040008130400081304000822
:100260001304000813040008130400081304000812
:100270001304000813040008130400080000000021
:100280001304000813040008130400080000000011
:10029000000000001304000800F002F800F03CF831
:1002A0000AA090E8000C82448344AAF10107DA45D1
:1002B00001D100F031F8AFF2090EBAE80F0013F0E7
:1002C000010F18BFFB1A43F0010318470055000047
:1002D00020550000103A24BF78C878C1FAD85207D8
:1002E00024BF30C830C144BF04680C6070470000B0
:1002F0000023002400250026103A28BF78C1FBD82F
:10030000520728BF30C148BF0B6070471FB505F0CA
:100310001BFA1FBD10B510BD00F059F91146FFF7CB
:10032000F5FF03F064FD00F077F903B4FFF7F2FF87
:1003300003BC00F07BF900002C4B19680868B0E89A
:10034000F04F80F30988BFF36F8F4FF0000080F308
:10035000118870470000000008480068006880F3BA
:1003600008884FF0000080F3148862B661B6BFF3CE
:100370004F8FBFF36F8F00DF00BF00BF08ED00E0BD
:10038000DFF80C00016841F470010160704700BFA4
:1003900088ED00E0EFF30980BFF36F8F134B1A680D
:1003A0001EF0100F08BF20ED108A20E9F04F1060FA
:1003B00009B44FF0500080F31188BFF34F8FBFF3A3
:1003C0006F8F04F083FC4FF0000080F3118809BCAC
:1003D00019680868B0E8F04F1EF0100F08BFB0ECC5
:1003E000108A80F30988BFF36F8F70471C000024C8
:1003F000EFF305807047000009488047094800472F
:10040000FEE7FEE7FEE7FEE7FEE7FEE7FEE7FEE7C4
:10041000FEE7FEE704480549054A064B7047000021
:100420005938000899020008784E002478540024B6
:100430007850002478500024032A40F2308010F0D5
:10044000030C00F0158011F8013BBCF1020F62446F
:1004500098BF11F801CB00F8013B38BF11F8013B00
:10046000A2F1040298BF00F801CB38BF00F8013BAD
:1004700011F0030300F05780083AC0F0088051F8EB
:10048000043B083A51F804CBA0E80810F5E7121D28
:100490005CBF51F8043B40F8043BAFF30080D20747
:1004A00024BF11F8013B11F801CB48BF11F8012B13
:1004B00024BF00F8013B00F801CB48BF00F8012B36
:1004C000704702F0FF0343EA032242EA024200F0CF
:1004D0005EB84FF0000200B51346944696462039A8
:1004E00022BFA0E80C50A0E80C50B1F12001BFF4ED
:1004F000F7AF090728BFA0E80C5048BF0CC05DF853
:1005000004EB890028BF40F8042B08BF704748BFA0
:1005100020F8022B11F0804F18BF00F8012B704714
:1005200070477047704710B5203AC0F00B80B1E8B3
:100530001850203AA0E81850B1E81850A0E8185018
:10054000BFF4F5AF5FEA027C24BFB1E81850A0E821
:10055000185044BF18C918C0BDE810405FEA827C3B
:1005600024BF51F8043B40F8043B08BF7047D20752
:1005700028BF31F8023B48BF11F8012B28BF20F8F3
:10058000023B48BF00F8012B70474FF000020429DE
:10059000C0F0128010F0030C3FF49DAFCCF1040CBE
:1005A000BCF1020F18BF00F8012BA8BF20F8022BE6
:1005B000A1EB0C01FFF78FBF5FEAC17C24BF00F8FD
:1005C000012B00F8012B48BF00F8012B704775463E
:1005D00000F028F8AE4605006946534620F00700B3
:1005E000854618B020B5FFF715FFBDE820404FF055
:1005F00000064FF000074FF000084FF0000B21F00D
:100600000701AC46ACE8C009ACE8C009ACE8C009D9
:10061000ACE8C0098D4670470446AFF30080204621
:10062000FFF783FE00487047144E0024014918204C
:10063000ABBEFEE7260002007047FEE7014800F06F
:10064000B3BC000014030024014800F0ADBC00005E
:100650008C030024014800F0A7BC0000040400241F
:10066000014800F0A1BC00007C040024294A016874
:1006700091423AD0274A1832914236D0254A303238
:10068000914232D0234A483291422ED0214A6032E0
:1006900091422AD01F4A7832914226D01D4A903288
:1006A000914222D01B4AA83291421ED01A4A91424E
:1006B0001BD0194A1832914217D0174A3032914252
:1006C00013D0154A483291420FD0134A60329142FA
:1006D0000BD0114A7832914207D00F4A90329142A2
:1006E00003D00D4AA832914211D1CAB21823103A50
:1006F000B2FBF3F26FF30901032A02F00703074A82
:10070000D25CC26500D9091D81650846704721F099
:10071000FF01F9E710000240100402409C57000856
:1007200030B5224A012301689142CAB21BD01F4C46
:100730001434A14217D01D4C2834A14213D01B4CB5
:100740003C34A1420FD0194C5034A1420BD0174C6D
:100750006434A14207D0154C7834A14203D0134C25
:100760008C34A1420CD11421114C083AB2FBF1F1A6
:100770000F4A803201F01F0504EB8101AB4010E00D
:100780000C4D1824103A0D44B2FBF4F1A82D00D8FA
:100790000831094A01F01F0402EB8101064AA34017
:1007A0008032603080E80E0030BD000008540258EE
:1007B00000580258F0FBFDBF0008024010B5027956
:1007C000531E072B2DD8174C0168A1421BD0154C86
:1007D0001434A14217D0134C2834A14213D0114C29
:1007E0003C34A1420FD00F4C5034A1420BD00D4CE1
:1007F0006434A14207D00B4C7834A14203D0094C99
:100800008C34A14203D10849074C443102E0074926
:10081000064C443104EB8202C0E91B2101219940BE
:10082000416710BD08540258FC580258FC080240A9
:1008300010B583694FF0C074826A0146002053B13D
:10084000B3F5005F15D072B1012A0CD0022A0AD08C
:10085000032A09D104E01AB1012A06D0022A03D1E1
:10086000C96AC90100D5012010BDC96AA142FAD0E8
:1008700010BD002AF7D0012AF2D0022AF3D0032AB1
:10088000F3D010BD2DE9F04F804E804FDFF8FC9182
:100890001836DFF8F8A148370468856D0AF1300A88
:1008A000DFF8ECB14C45DFF8ECC1DFF8ECE16DD0DE
:1008B000B4426BD0544569D0BC4267D0DFF8D081D8
:1008C000A8F11808444561D05C455FD064455DD00F
:1008D00074455BD0DFF8C481444557D0DFF8BC8154
:1008E00008F11808444551D0DFF8B08108F130080C
:1008F00044454BD0DFF8A48108F14808444545D071
:10090000DFF8988108F1600844453FD0DFF88C811A
:1009100008F17808444539D0DFF8808108F1900863
:10092000444533D0DFF8748108F1A80844452DD040
:10093000DFF86C81444529D0DFF8648108F11408A0
:10094000444523D0DFF8588108F1280844451DD0DC
:10095000DFF84C8108F13C08444517D0DFF84081AE
:1009600008F15008444511D0DFF8348108F16408DB
:1009700044450BD0DFF8288108F17808444505D0BC
:10098000DFF81C8108F18C08444509D1D0E91948E9
:10099000C4F80480C46E1CB1D0E91C48C4F80480BB
:1009A00004684C452ED0B4422CD054452AD0BC42C9
:1009B00028D0374E183EB44224D05C4522D064453E
:1009C00020D074451ED0354EB4421BD0334E18365D
:1009D000B44217D0314E3036B44213D02F4E483681
:1009E000B4420FD02D4E6036B4420BD02B4E783629
:1009F000B44207D0294E9036B44203D0274EA836D1
:100A0000B44215D190F85C603F2406F01F06B44054
:100A1000AC600468256825F4802525602EE09A6086
:100A20000068C160BDE8F08F99600068C260F9E7B6
:100A30001B4EB4421BD01A4E1436B44217D0184E77
:100A40002836B44213D0164E3C36B4420FD0144E62
:100A50005036B4420BD0124E6436B44207D0104E1A
:100A60007836B44203D00E4E8C36B442DAD190F8C8
:100A70005C60012406F01F06B4406C60046863608B
:100A80008368402B0368CFD1C9E700001000024003
:100A900088000240A0000240B8000240100402405A
:100AA00008540258154830B50268116821F0010356
:100AB000134913600B681A6822F001041C600022BD
:100AC0000468D423A2620468E362C3600468E2633A
:100AD00004682264012405686A6200684461086849
:100AE00082620868C362CB600868426308688263F8
:100AF000086842620868446130BD00007C0200243E
:100B0000C8020024064807490068C26822F4C0529F
:100B1000C2600868C16821F4C061C160704700000C
:100B20007C020024C802002470B50446084600F088
:100B300047F80F4B04EB8402002103EB02124FF63F
:100B4000FF73040401D5A02500E050254C1C22F8B9
:100B50001150E1B2102903EA4000F2D31020002125
:100B6000431C22F81010D8B22828F9D370BD000019
:100B70009C00002470B50446084600F021F80F4B95
:100B800004EB8402002103EB42124FF6FF730404CE
:100B900001D5A02500E050254C1C42F82150E1B2BF
:100BA000102903EA4000F2D310200021431C42F830
:100BB0002010D8B22828F9D370BD00003C010024D1
:100BC000B0F5006F01D340F2FF704FF6FF7101EAFC
:100BD000400080EA101181EA102101F00F0141EA82
:100BE000001080B2704700002DE9F041104800F07D
:100BF000E3F8104800F0E0F84FF480560C4DB700D1
:100C00002846C5E9056700F043FD08B100F0D1F8BA
:100C1000084C2046C4E9056700F03AFD08B100F031
:100C2000C8F805484562A8638462A063BDE8F08106
:100C3000040400247C040024C802002470B5044687
:100C400001460020FFF770FF01202146FFF76CFFEF
:100C500000202146FFF78EFF01202146FFF78AFF83
:100C6000FFF750FF284D294C2868016821F0010149
:100C700001602068016821F00101016000F048F87E
:100C80002968002048622168486200F051F828680D
:100C9000016841F0010101602068016841F0010133
:100CA000016001F061F9064607E000BF01F05CF960
:100CB000801B0A2801D900F07CF8E86A00F070F97E
:100CC0000128F3D1286B00F06BF90128EED1606A9E
:100CD00000F066F90128E9D1A06A00F061F9012865
:100CE000E4D1C21E002029680A6129680B69DB4330
:100CF000DB07FBD1401C1828F5D3FFF703FFBDE845
:100D0000704000F005B800007C020024C8020024F6
:100D1000054A002005491368D863126810640A6800
:100D200050630968886370477C020024C80200246D
:100D300070B51B4C28231B492268E06A3C3200F046
:100D400089FE08B100F035F8164928232268206B87
:100D50005031403200F07EFE08B100F02AF8124D0A
:100D600028231049A0312A68686A343200F072FEE4
:100D700008B100F01EF82A6828230C49A86A383206
:100D800000F068FE08B100F014F82068C16841F472
:100D9000C051C1602868C16841F4C061C16070BDC4
:100DA0007C0200249C000024C8020024DC010024F2
:100DB000704772B6FEE700002DE9F05F04007DD0B9
:100DC0006D4A6D4B6C491832206830336B4E6C4F56
:100DD0008842DFF8B0C1DFF8B081DFF8B091DFF80A
:100DE000B0A1DFF8B0B1DFF8B0E121D090421FD060
:100DF00098421DD0B0421BD0B84219D0604517D0E0
:100E0000404515D0484513D0504511D058450FD016
:100E100070450DD0604D1835A84209D05E4D303573
:100E2000A84205D05C4D4835A84201D05A4D6035E6
:100E3000056825F00105056020680025884227D057
:100E4000904225D0984223D0B04221D0B8421FD042
:100E500060451DD040451BD0484519D0504517D09E
:100E6000584515D0704513D04B49183188420FD0E2
:100E70004949303188420BD047494831884207D030
:100E800045496031884203D043497831884218D1BE
:100E90002121056020684560206885602068C56064
:100EA00020680561206841612046FFF7DFFB94F868
:100EB0005C203F2102F01F02914000E059E0816078
:100EC00031E0364988421BD034491431884217D06A
:100ED00032492831884213D030493C3188420FD002
:100EE0002E49503188420BD02C496431884207D0BA
:100EF0002A497831884203D028498C31884238D138
:100F0000056020684560206885602068C5602068AD
:100F100005612046FFF7AAFB94F85C20012102F04E
:100F20001F02914041602046FFF7FAFB206E18B186
:100F30000560D4E9190141606068401E072807D8A0
:100F40002046FFF73BFCE06E0560D4E91C014160E0
:100F5000E56625676567E56325646564A564E56402
:100F60002565656584F83550002084F83450BDE867
:100F7000F09F0120FBE700001000024058000240F3
:100F80007000024088000240A0000240B800024009
:100F90001004024028040240400402400854025851
:100FA00090F83500704700002DE9FC5F0446F74ECD
:100FB0000020DFF8D88300904FF41652F44808F16F
:100FC0001808A56DDFF8C493DFF8C0A3016809F124
:100FD000300920680AF1480AB1FBF2F1B0420191F0
:100FE0002F68D5F800C0DFF8ACB335D04146884251
:100FF00032D0484530D050452ED058452CD0E54908
:101000001831884228D0E3493031884224D0E14960
:101010004831884220D0E04988421DD0DE4918314D
:10102000884219D0DC493031884215D0DA4948313C
:10103000884211D0DFF860E30EF1600E70450BD0EE
:10104000D54A7832904207D0D34B9033984203D0A0
:10105000D149A83188427DD194F85C20082102F062
:101060001F0201FA02F23A424AD0B04232D0404561
:1010700030D048452ED050452CD058452AD0C54AAE
:101080001832904226D0C34A3032904222D0C14A10
:10109000483290421ED0C04A90421BD0BE4A1832FD
:1010A000904217D0BC4A3032904213D0BA4A4832EC
:1010B00090420FD0B84A603290420BD0B64A783294
:1010C000904207D0B44A9032904203D0B24AA8323C
:1010D000904203D1026802F0040202E0026802F0CA
:1010E00008026AB1026822F00402026094F85C000F
:1010F00000F01F008140A960606D40F00100606554
:1011000094F85C00012100F01F008140394240D07A
:101110002068B04234D0404532D0484530D05045A8
:101120002ED058452CD09B4A1832904228D0994A4C
:101130003032904224D0974A4832904220D0964A8A
:1011400090421DD0944A1832904219D0924A3032BF
:10115000904200E0AFE113D08F4A483290420FD066
:101160008D4A603290420BD08B4A7832904207D041
:10117000894A9032904203D0874AA83290427DD16A
:10118000406910F0800F04D0A960606D40F002004B
:10119000606594F85C00042100F01F008140394232
:1011A0003ED02068B04232D0404530D048452ED0A5
:1011B00050452CD058452AD0764A1832904226D035
:1011C000744A3032904222D0724A483290421ED045
:1011D000714A90421BD0704A1832904217D06E4A22
:1011E0003032904213D06C4A483290420FD06A4A53
:1011F000603290420BD0684A7832904207D0664AFB
:101200009032904203D0644AA83290424ED1006896
:1012100010F0020F04D0A960606D40F0040060651A
:1012200094F85C00102100F01F008140394258D032
:101230002068B04234D0404532D0484530D0504587
:101240002ED058452CD0534A1832904228D0514ABB
:101250003032904224D04F4A4832904220D04E4AF9
:1012600090421DD04C4A1832904219D04A4A30322E
:10127000904215D0484A4832904200E014E00FD026
:10128000454A603290420BD0434A7832904207D0B0
:10129000414A9032904203D03F4AA832904207D14F
:1012A000006800F0080006E0006872E70068B7E731
:1012B000006800F00400A0B1A9602068016849033B
:1012C00004D50068000308D5A16C07E00168C905D2
:1012D00003D4016821F008010160216C09B12046A6
:1012E000884794F85C00202100F01F0081403942BB
:1012F00079D02068B04232D0404530D048452ED019
:1013000050452CD058452AD0224A1832904226D037
:10131000204A3032904222D01E4A483290421ED09B
:101320001D4A90421BD01C4A1832904217D01A4ACC
:101330003032904213D0184A483290420FD0164AA9
:10134000603290420BD0144A7832904207D0124A51
:101350009032904203D0104AA832904203D10068E4
:1013600000F0100002E0006800F00200B0B3A960D5
:1013700094F835000428206801680FD049037ED511
:10138000006800032BD4616C2AE0000010000240CA
:1013900014000024700002401004024021F01601E5
:1013A00001602068416921F080014161206C08B929
:1013B000A06C20B12068016821F00801016094F858
:1013C0005C303F21012003F01F0300229940A960F7
:1013D00084F8350084F83420216D65E003E0E16B8A
:1013E00009B120468847606D00287DD0606DC00738
:1013F00059D02068042184F83510B0422BD04045E4
:1014000029D0484527D0504525D0584523D09D495F
:10141000884220D09B49183188421CD099493031EC
:10142000884218D09849884215D097491831884287
:1014300011D09549303188420DD0934948318842C6
:1014400009D091496031884205D08F49783188426E
:1014500001D08D499031016821F0010101602068BF
:101460000099019A491C0091914202D80168C9076C
:10147000F6D10068C00710D003200FE0FFE7016835
:10148000C905ACD403680121002223F010030360D6
:1014900084F8351084F83420A1E7012084F8350061
:1014A000002084F83400E16C00291DD002B02046F1
:1014B000BDE8F05F0847754988421DD07349143173
:1014C000884219D071492831884215D06F493C3182
:1014D000884211D06D49503188420DD06B4964313A
:1014E000884209D0694900E084E07831884203D01D
:1014F00066498C3188427DD194F85C80042701686C
:1015000008F01F0807FA08F717EA0C0F009746D0F3
:101510004F0744D500980F04686003D5C8033CD436
:10152000A16CC1E7880638D42068B0422DD0554957
:101530006039884229D0484527D0504525D05845A4
:1015400023D05049884220D04E49183188421CD0BF
:101550004C493031884218D04B49884215D04A490D
:101560001831884211D04849303188420DD046495F
:101570004831884209D0704507D0904205D0984242
:1015800003D04149A831884203D1016821F0080104
:1015900002E0016821F004010160216C84E7022768
:1015A00007FA08F717EA0C0F00974ED08F074CD5B3
:1015B00000980F04686003D5C80344D4616C73E7D6
:1015C000880640D42068B0422FD02E496039884226
:1015D0002BD0484529D0504527D0584525D02949FA
:1015E000884222D02749183188421ED025493031FF
:1015F000884200E044E018D02349884215D02249AF
:101600001831884211D02049303188420DD01E490E
:101610004831884209D0704507D0904205D09842A1
:1016200003D01949A831884203D1016821F014017F
:1016300002E0016821F00A010160012184F83510FF
:10164000002084F83400E16B2EE7082202FA08F249
:1016500012EA0C0F14D0090712D5016821F00E010F
:10166000016094F85C100120002201F01F0100FAD3
:1016700001F16960606584F8350084F8342012E770
:10168000BDE8FC9F88000240100402400854025844
:101690002DE9F05F044600F067FC002C07467DD082
:1016A000E34E022120684FF00308DFF888934FF0E3
:1016B0000005DFF884A3B042DFF880B334D0DC4A01
:1016C0001832904230D048452ED050452CD0584545
:1016D0002AD0DA4A1832904226D0D84A3032904284
:1016E00022D0D64A483290421ED0D54A90421BD0D2
:1016F000D34A1832904217D0D14A3032904213D098
:10170000CF4A483290420FD0CD4A603290420BD03F
:10171000CB4A7832904207D0C94A9032904203D0E7
:10172000C74AA83290427DD184F83510B04284F87F
:1017300034502ED0BE49183188422AD0484528D08E
:10174000504526D0584524D0BC491831884220D075
:10175000BA49303188421CD0B8494831884218D043
:10176000B749884215D0B6491831884211D0B449DA
:10177000303188420DD0B2494831884209D0B04951
:101780006031884205D0AE497831884201D0AC49F9
:101790009031016821F00101016008E027E100BFFC
:1017A00000F0E2FBC01B052801D920211CE12068C4
:1017B0000068C007F4D104F108002168D4E9053CB1
:1017C0008E4685C809681043D4E907281F43636A19
:1017D00038439C4F40EA0C001043394040EA08006F
:1017E000042B40EA010003D1D4E90B121143084352
:1017F000954909686FF30F01B1F1005F0FD361687C
:10180000A1F12902052A08D9163A032A05D9083A6E
:10181000012A02D94F39032901D840F48010CEF8AB
:10182000000000E023E02068676A4069042F20F090
:10183000070047EA00070DD1D4E90A01074349B17F
:101840002046FEF7F5FF28B140206065012184F8AD
:101850003510CCE0206847612046FEF707FF94F87A
:101860005C203F2102F01F029140816054E0774AE2
:1018700090421BD0754B1433984217D0734B2833CA
:10188000984213D0714B3C3398420FD06F4B50337A
:1018900098420BD06D4B6433984207D06B4B783332
:1018A000984203D0694B8C3398427DD184F835102F
:1018B00084F83450664B0168A26801EA030E402A9E
:1018C00073D0802A72D00022D4E90378D4E905319C
:1018D00042EAD70242EAD8085C4AD4E9077C48EADF
:1018E000D30848EAD10141EAD701524241EA1C112A
:1018F000142341EA0E01016020681044B0FBF3F0AC
:101900008000E0652046FEF7B1FE94F85C200121DE
:1019100002F01F02914041602068B04257D0444914
:101920001831884253D0484551D050454FD0584582
:101930004DD042491831884249D04049303188421F
:1019400045D03E494831884241D03D4988423ED049
:101950003B49183188423AD039493031884236D033
:1019600037494831884232D03549603188422ED0DB
:101970003349783188422AD031499031884226D083
:101980002F49A831884222D0304988421FD02F49A0
:10199000143188421BD02D492831884217D02B4959
:1019A0003C31884213D002E01DE017E018E02749DF
:1019B000503188420BD025496431884207D02349F1
:1019C0007831884203D021498C31884229D1204680
:1019D000FEF7A6FEA06880280CD00CE0102273E76A
:1019E0004FF4804270E74021616584F83580012022
:1019F000BDE8F09F6560216E20790860D4E9190187
:101A000041606068401E072808D82046FEF7D6FED1
:101A1000E06E0560D4E91C01416002E0E5662567DF
:101A200065670120656584F835000020E0E7000067
:101A30001000024040000240580002407000024086
:101A4000100402403F8010FE0010005C0854025851
:101A50000F00FEFF2DE9F84F04008C464FF0000008
:101A6000009014D094F83400012812D094F8355026
:101A70000120002184F83400012D0CD0C0026065E3
:101A80000120009084F834100098BDE8F88F012000
:101A9000FBE70220F9E78C4D0226206884F83560C8
:101AA000A8428A4D61658A4E8A4FDFF82C82DFF8A2
:101AB0002C92DFF82CA2DFF82CB226D0A84224D03A
:101AC000B04222D0B84220D040451ED048451CD05C
:101AD00050451AD0584518D08349884215D08249BC
:101AE0001831884211D08049303188420DD07E496A
:101AF0004831884209D07C496031884205D07A4912
:101B00007831884201D078499031016821F0010193
:101B1000016061462046FEF7B5FE6B4920688842A9
:101B20002CD0A8422AD0B04228D0B84226D0404576
:101B300024D0484522D0504520D058451ED06A4A6E
:101B400090421BD0684A1832904217D0664A303211
:101B5000904213D0644A483290420FD0624A6032B9
:101B600090420BD0604A7832904207D05E4A903261
:101B7000904203D05C4AA83290420CD1026822F015
:101B80001E0242F016020260206C88B120680268D2
:101B900042F008020BE0026822F00E0242F00A0254
:101BA0000260206C20B12068026842F004020260EA
:101BB000206888424BD0A84249D0B04247D0B842B2
:101BC00045D0404543D0484541D050453FD0584589
:101BD0003DD0454A90423AD0434A1832904236D0DE
:101BE000414A3032904232D03F4A483290422ED061
:101BF0003D4A603290422AD03B4A7832904226D009
:101C0000394A9032904222D0374AA83290421ED0B0
:101C1000364A90421BD0354A1432904217D0334A8C
:101C20002832904213D0314A3C3290420FD02F4A92
:101C3000503290420BD02D4A6432904207D02B4A4A
:101C40007832904203D0294A8C3290420DD1206ED6
:101C50000268D20303D5026842F480720260E06E2B
:101C600018B1026842F4807202602068884226D06F
:101C7000A84224D0B04222D0B84220D040451ED045
:101C800048451CD050451AD0584518D016498842AE
:101C900015D015491831884211D013493031884286
:101CA0000DD011494831884209D00F49603188422E
:101CB00005D00D497831884201D00B499031016837
:101CC00041F001010160DFE61000024028000240FF
:101CD000400002405800024070000240880002406C
:101CE000A0000240B800024010040240085402580C
:101CF00070B5044600F038F90546601C02D004486F
:101D00000078044400F030F9401BA042FAD370BDC3
:101D1000080000242DE9F84F03247D4D00234FF0E7
:101D200001094FF0B04B4FF00F0AE9E009FA03F751
:101D30003A4076D00E7906F00306012E01D0022E2D
:101D400018D1D0F808C04FEA430ECE6804FA0EF856
:101D50002CEA080C06FA0EF646EA0C068660D0F865
:101D600004C00E792CEA070CC6F300169E4046EA22
:101D70000C0646600E79F643B6070BD0C6684FEAEC
:101D800043088F6804FA08FC26EA0C0607FA08F7ED
:101D90003743C7600E7906F00306022E12D1DE0823
:101DA0000F694FEA437C00EB8606B646366A4FEA77
:101DB000DC6C0AFA0CF807FA0CF726EA0806374337
:101DC000CEF820700F7906684FEA430807F0030742
:101DD00004FA08FC07FA08F726EA0C0637430760FE
:101DE0004E6816F4403F1CD04A4E376847F0020751
:101DF000376036689F0706F00206009623F0030658
:101E000006F1B046B6463F0FD6F80864DFF8088101
:101E10000AFA07FC404526EA0C0603D14FF0000CF5
:101E200041E06CE0DFF8F4C0604502D14FF0010CF6
:101E300039E0DFF8ECC0604502D14FF0020C32E02F
:101E4000DFF8E0C0604502D14FF0030C2BE0DFF873
:101E5000D8C0604502D14FF0040C24E0DFF8CCC0BC
:101E6000604502D14FF0050C1DE0DFF8C4C06045AD
:101E700002D14FF0060C16E0DFF8B8C0604502D181
:101E80004FF0070C0FE0DFF8B0C0604502D14FF013
:101E9000080C08E0DFF8A4C0604502D14FF0090C3F
:101EA00001E04FF00A0C0CFA07FC4CEA060CCEF8E5
:101EB00008C44F68DBF80060FF0226EA020600D57E
:101EC00016435F46CBF80060D1F804C0DBF804602D
:101ED0005FEA8C2C26EA020600D516437E606E6807
:101EE0004F6826EA0206BF0300D516436E602E68CF
:101EF0004F6826EA0206FF0300D516432E605B1CDE
:101F00000A6832FA03F67FF411AFBDE8F88F0000DB
:101F100080000058F444025800000258000402589F
:101F200000080258000C0258001002580014025811
:101F300000180258001C02580020025800240258C1
:101F4000426921EA02030A4043EA02418161704783
:101F50000AB1816170470904FBE70000014800688D
:101F6000000C70470010005C01488068704700005A
:101F7000080000240248816802781144816070479B
:101F800008000024032010B500F0FEF800F0C8FAA5
:101F90000F4A104914681368C4F3032203F00F03B7
:101FA0008A5CC95C02F01F0201F01F01D0400A4A9E
:101FB00020FA01F11160094908600F2000F010F8C3
:101FC00008B1012010BD00F09FF8002010BD0000F6
:101FD00018440258A45700081800002414000024D4
:101FE00010B5102804468AB02DD2002201461C20CC
:101FF00000F0AAF81C2000F099F81848046018486E
:10200000016841F001010160006809A900F00100C8
:102010000890684600F022FA0598B8B100F06EFA10
:1020200040001049002240F2E733B0FBF1F10E48C6
:102030004FF080440460C0E90332491EC0E9011238
:1020400000F020FE28B101200AB010BD00F056FAC1
:10205000E7E7054800F0F2FEF6E700000C00002478
:10206000E844025840420F00F4040024154BF0B538
:10207000083B427813491A600B680A1F23F00103DA
:102080000B6043681360057BC67A827A437B2D0719
:10209000847B45EA0665C77B90F809C0067A90F80C
:1020A00000E045EAC24040EA834040EA444040EA5A
:1020B000074040EA0C2040EA460040EA0E00086073
:1020C000F0BD0000A0ED00E0BFF35F8F04480021E9
:1020D0000368034A23F48033036070321160704751
:1020E00024ED00E0074A40F001000649703210601C
:1020F000086840F480300860BFF34F8FBFF36F8FE4
:102100007047000024ED00E0074882B0016841F00C
:1021100002010160006800220F2100F0020000901F
:10212000901E02B000F010B8F4440258002809DBF9
:10213000410900F01F028900012001F1E0219040D7
:10214000C1F80001704700000E4BF0B41B680D464B
:10215000C3F30223C3F10706042E00D90426191D78
:10216000072901D2002300E0DB1E012404FA06F156
:102170009C40491E2940641E994014402143F0BCF4
:1021800001F024BE0CED00E0064900F0070210B596
:102190004FF6FF040868044B204040EA0220184331
:1021A000086010BD0CED00E00000FA05134970B5A1
:1021B0000A68D243520705D5096801F00701814238
:1021C00013D118E00A6822F0070202430A60FFF701
:1021D000CBFE0A4D4FF47A760446083D07E000BF77
:1021E000FFF7C2FE001BB04201D9012070BD286874
:1021F000C0438004F4D4002070BD00000C48025895
:102200002DE9F05F04000F467ED0DFF83882D8F861
:10221000000000F00F00B8420CD2D8F8001021F0F6
:102220000F013943C8F80010D8F8000000F00F0083
:10223000B84269D12078844D40070AD520692968C1
:1022400001F07001884204D9296821F0700101432E
:10225000296020787C4E361D00070AD560693168F8
:1022600001F07001884204D9316821F07001014306
:1022700031602078C0060AD5A069316801F4E061B8
:10228000884204D9316821F4E0610143316020784B
:10229000DFF8B4B180060BF1080B0CD5E1695846A4
:1022A000DBF8002002F07002914204D9026822F0AB
:1022B00070020A430260207880070AD5E068296826
:1022C00001F00F01884204D9296821F00F01014370
:1022D00029602078C0073ED05B49A2682868183979
:1022E00020F47060104328606068022818D003282A
:1022F00019D00968012819D0490700294ADADFF8FE
:1023000048A1AAF1080A00E044E0DAF8002022F02F
:1023100007020243CAF80020FFF726FE814612E0BA
:1023200009688903E9E709688901E6E7C905E4E77F
:10233000FFF71AFEA0EB090141F28830814202D971
:102340000320BDE8F09F6168DAF8000000F0380073
:10235000B0EBC10FECD1207880070AD5E06829687E
:1023600001F00F01884204D2296821F00F010143D6
:102370002960D8F80010404601F00F01B9420BD98E
:10238000016821F00F0139430160006800F00F007F
:10239000B84201D00120D4E7207840070AD520694F
:1023A000296801F07001884204D2296821F0700187
:1023B00001432960207800070AD56069316801F07F
:1023C0007001884204D2316821F07001014331600C
:1023D0002078C0060AD5A069316801F4E06188421E
:1023E00004D2316821F4E061014331602078800635
:1023F0000CD5E1695846DBF8002002F070029142EA
:1024000004D2026822F070020A43026000F088F8E9
:102410000E492A682B68C2F3032203F00F038A5C7B
:10242000C95C02F01F0201F01F01D040084A20FAE7
:1024300001F111600749086007480068BDE8F05FD6
:10244000FFF7CEBD0020005218440258A4570008E0
:1024500018000024140000240C00002470B5144C53
:102460003F220260124A24680832131D114D04F005
:102470000704446016681C1D06F4706686601668C2
:1024800006F00F06C660126802F0700202611A6858
:1024900002F0700242611A6802F4E062826122680E
:1024A00002F07002C261286800F00F00086070BD81
:1024B000104402580020005230B500F031F80B4AA9
:1024C0000B490C4B15681468C5F3032204F00F0484
:1024D0008A5C095D02F01F0201F01F01D040064A2C
:1024E00020FA01F119601060084630BD1844025806
:1024F000A4570008180000241400002400B5FFF7BA
:10250000DBFF05490968054AC1F30211515C01F07E
:102510001F01C84000BD00001C440258A457000819
:10252000454970B545480968434B103B11F03802E6
:1025300008D00111082A03D0102A0BD0182A0BD07A
:10254000084670BD19688906FBD51968C1F3C10139
:10255000C84070BD3A4870BD3749374D18310C1D21
:1025600024350A68096826682D6802F0030406F01D
:102570000102C1F30511C5F3CC0515FB02F200EE13
:10258000102AB8EE400AE9B32F4ADFED2E0AB7EE63
:10259000001A6CB1DFED2D1A012C01D0022C43D0B2
:1025A00002EE101A1068F8EE422A81EEA22A1EE00E
:1025B0001C68A40611D51B6801EE901A1168C3F3BC
:1025C000C103F8EE612AD84001EE900AC1F3080079
:1025D000F8EE611A81EEA22A0BE001EE901ADFED0F
:1025E0001C2A00BFF8EE611A106882EEA12AC0F31F
:1025F000080001EE900AF8EE611A40EE201A31EE62
:10260000810A00E015E022EE000A1068C0F34620BF
:10261000401C00EE900AF8EE600A80EE201ABCEE34
:10262000C10A10EE100A70BD01EE901ADFED092A02
:10263000D8E7002070BD0000104402580090D0037D
:1026400040787D0100000039304402580024744A6B
:102650000024744C20BCBE4B2DE9F05F04007DD0FB
:10266000FF4F2078FE4D1837DFF8F493103DC00778
:1026700048D0D9F80000396800F03800102815D08B
:10268000182803D101F0030002280FD06068B0F5CC
:10269000803F12D010B1B0F5A02F18D0286820F4D8
:1026A00080302860286820F4802009E028688003B2
:1026B00028D560680028D2D024E0286840F4803013
:1026C0002860606888B1FFF74FFC064609E028687B
:1026D00040F480202860F0E7FFF746FC801B642868
:1026E0006FD828688003F7D50CE0FFF73DFC06465D
:1026F00005E000BFFFF738FC801B6428F0D828688D
:102700008003F7D4207841F20308D54E0C3E8007B1
:1027100069D5D9F80000396810F038000ED01828B3
:1027200001D188070AD0E06890B3296821F0190127
:1027300001432960FFF718FC824631E02868400712
:1027400002D5E06800288AD0E168286820F01900E6
:1027500008432860FFF708FC824607E0DFE000BF7F
:10276000FFF702FCA0EB0A000228B9D8286840074E
:10277000F6D500BFFFF7F2FB40451BD82069402883
:1027800012D0316821F47C3141EA003030602AE017
:1027900018E000BFFFF7E8FBA0EB0A0002289FD873
:1027A00028684007F6D5E5E7306820F47C3040F42F
:1027B0000030EBE7207C316821F0FE4141EA006007
:1027C000E4E70DE1286820F001002860FFF7CCFB6A
:1027D000824605E0FFF7C8FBA0EB0A0002288DD86F
:1027E00028684007F6D42078C0065DD5D9F80000E7
:1027F000DFF86CB2396800F03800ABF1040B082840
:1028000010D0182803D101F0030001280AD0E06994
:102810000028286838D040F080002860FFF7A4FB2B
:10282000824623E02868C00523D5E069802876D158
:102830001FE0206A202821D0316821F0F84141EAC8
:102840008060306030E000BF94F82010DBF800209A
:1028500022F07C5242EA0161CBF8001024E000BF74
:10286000FFF782FBA0EB0A00022898D82868C00571
:10287000F6D5FFF773FB4045E6D8DAE7306820F07D
:10288000F84040F08040DCE720F080002860FFF74F
:102890006BFB064605E000BFFFF766FB801B0228C6
:1028A0009DD82868C005F7D42078000729D56C4842
:1028B0006169643000298046016811D041F001014E
:1028C0000160FFF751FB064605E000BFFFF74CFB38
:1028D000801B0228C9D8D8F800008007F6D510E080
:1028E00021F001010160FFF73FFB064605E000BF54
:1028F000FFF73AFB801B022872D8D8F80000800747
:10290000F6D42078800623D5A0690028286810D046
:1029100040F480502860FFF727FB064605E036E1CB
:10292000FFF722FB801B02285AD828688004F7D5BD
:102930000EE020F480502860FFF716FB064604E006
:10294000FFF712FB801B02284AD828688004F7D4BE
:10295000207840074FD5DFF80C81D8F8001041F4FB
:102960008071C8F80010FFF7FFFA064605E000BFC7
:10297000FFF7FAFA801B642832D8D8F80000C005A7
:10298000F6D5374EA068603601280AD008B1052870
:1029900013D0306820F001003060306820F004006F
:1029A00002E0306840F001003060A06841F2883AEF
:1029B00090B1FFF7D9FA80460AE0306840F0040091
:1029C0003060EEE7FFF7D0FAA0EB0801514507D8D9
:1029D00030688007F6D50EE0FFF7C6FA804607E0BC
:1029E00084E000BFFFF7C0FAA0EB080151457DD895
:1029F00030688007F6D4606AB0B3DFF86480D9F835
:102A0000001008F120084FF6F87B08F10409C1F323
:102A1000C2010329A8F1040A69D00228286820F01D
:102A20008070286003D0FFF79FFA044684E0FFF728
:102A30009BFA064605E000BFFFF796FA801B0228C6
:102A400077D828688001F7D4E26A40F2F331386819
:102A500054F8283F884340EA02101843386004E0E5
:102A60001044025800480258B5E0217B43462289B1
:102A70004FF4FE0C208A4FF0FE474902267D521E7D
:102A8000401EA1F50071C2F308088AB2761E0CEA56
:102A9000004042EA08020243504607EA06610A4340
:102AA0001A60DAF8002022F00102CAF80020D9F8F2
:102AB0000020266A22EA0B0242EAC602C9F8002078
:102AC000DAF80010A26921F00C011143CAF80010D5
:102AD0000168E26921F0020111430160016841F4DB
:102AE00080310160016841F4003101E021E027E01C
:102AF0000160016841F480210160016841F0010139
:102B00000160286840F080702860FFF72DFA0446C5
:102B100005E000BFFFF728FA001B022809D8286843
:102B20008001F7D557E000BFFFF71EFA001B02280F
:102B300002D90320BDE8F09F28688001F4D44AE060
:102B400039680128D8F8000021D0A26A01F00303F7
:102B500093421CD1E26AC1F305118A4217D1216B5D
:102B6000C0F30802491E8A4211D1616BC0F34622AC
:102B7000491E91420BD1A16BC0F30642491E9142FE
:102B800005D1E16BC0F30660491E814201D00120EE
:102B9000D0E7A16C4E46D9F80000C0F3CC008142CA
:102BA00019D0DAF80000554620F00100CAF80000FC
:102BB000FFF7DAF94FEA0007FFF7D6F9B842FBD082
:102BC000A26C306820EA0B0040EAC200306028683E
:102BD00040F0010028600020ACE770477047704764
:102BE000F0B590F83C20012A3BD01F4E012480F81C
:102BF0003C40022280F83D2002681C4D5368B242DE
:102C0000D2F808C001D0AA4203D14F6823F4700360
:102C10003B430F6823F070031F4357600268B242C2
:102C200013D0B2F1804F10D0114B9A420DD0114BFE
:102C30009A420AD0104B9A4207D0AA4205D00F4BB5
:102C40009A4202D00E4B9A4204D189682CF080033C
:102C500019439160002180F83D4080F83C100846FF
:102C6000F0BD0220F0BD0000000001400004014062
:102C70000004004000080040000C00400018004024
:102C80000040014010B5040003D094F83D0010B19D
:102C900007E0012010BD002084F83C00204600F031
:102CA00023F8022084F83D002068211D00F048FE32
:102CB000012084F8480084F83E0084F83F0084F83E
:102CC000400084F8410084F8420084F8430084F80E
:102CD000440084F8450084F8460084F8470084F8EE
:102CE0003D00002010BD00002DE9F84F06680446A5
:102CF0004C48002540274C4B86424FF480624FF4ED
:102D000000604FF4005143D11E6846F002061E6079
:102D10001B684FF01908454E814603F002030093EB
:102D20008301DFF80CC192468B46B1613046C6E99B
:102D30000275C6E907537562C6E900C8C6E90429E9
:102D4000FEF7A6FC08B1FEF734F8DFF8E0801A229F
:102D5000374908F17808E662B46318314046C8F88C
:102D600000104FF40031C8F818B0C8F80420C0E9CA
:102D70000275C0E90751C8E904A9C8F82450FEF754
:102D800087FC08B1FEF715F84046C4F8308046E0ED
:102D9000DFF8A0C0664543D11E6846F008061E60F5
:102DA0001B689146214E824603F008030093F036DB
:102DB0008B4606F10C0EDFF878C04FF440334FF02D
:102DC0003708B7600CF1300C8EE8200EC6E90753C7
:102DD00075623046C6E900C8FEF75AFC08B1FDF737
:102DE000E8FFDFF854803822114908F10C036662CD
:102DF0004831B463C8F800104FF44031404683E8CE
:102E0000200EC0E90751C8E90127C8F82450FEF791
:102E10003FFC08B1FDF7CDFF4046C4F8288084632D
:102E2000BDE8F88F00040040E84402581403002471
:102E300010000240000C00407C04002490F83D107B
:102E4000012901D001207047174A022180F83D1066
:102E50000168CB6843F00103CB600068904214D056
:102E6000B0F1804F11D0114988420ED010498842EC
:102E70000BD01049884208D00F49884205D00F492D
:102E8000884202D00E49884207D181680D4A11401C
:102E9000062906D0B1F5803F03D0016841F0010159
:102EA0000160002070470000000001400004004065
:102EB00000080040000C00400004014000180040E1
:102EC000004001400700010070B5044690F83C0046
:102ED0000025012814D03A4B012684F83C600220DA
:102EE00084F83D0022689068184020F47F4090608C
:102EF000086870282FD010DC10F00F0F03D022E0EC
:102F00004FF0020070BD4FEA2012072A1BD2DFE803
:102F100002F0535353534B394100B0F1101F4BD0C3
:102F200009DCB0F5805F0FD0B0F5005F1ED0B0F5C2
:102F3000801F08D140E0A0F5801120393CD0102935
:102F40003AD0202938D0012584F83D60002084F84B
:102F50003C00284670BD4A682068D1E9021300F0A1
:102F600064FD2068816841F0770109E04A682068C3
:102F7000D1E9021300F059FD2068816841F48041D5
:102F80008160E1E7CA684968206800F0FBFE2068BC
:102F9000502106E0CA684968206800F004FF2068F4
:102FA000602100F04BFDCFE7CA684968206800F057
:102FB000E9FE20684021F4E7226801461046F0E768
:102FC00088FFCEFF70472DE9F041044600680027D6
:102FD000C6680569A90713D5B10711D5FA1E0261A4
:102FE00001212177206880698007204602D0FFF701
:102FF000E9FF04E000F0CAF8204600F08CF92777DA
:10300000680716D5700714D5226802206FF00401F6
:10301000116120772068806910F4407F204602D03B
:10302000FFF7D0FF04E000F0B1F8204600F073F99C
:103030002777280715D5300713D5226804206FF0AD
:103040000801116120772068C0698007204602D0FE
:10305000FFF7B8FF04E000F099F8204600F05BF9B4
:103060002777E80616D5F00614D5226808206FF0F9
:103070001001116120772068C06910F4407F20465C
:1030800002D0FFF79FFF04E000F080F8204600F038
:1030900042F92777E80708D0F00706D021686FF0DB
:1030A00001000861204600F0BFF9280601D4A804F9
:1030B00008D5300606D521686FF402500861204615
:1030C000FFF78CFDE80508D5300606D521686FF4BA
:1030D000807008612046FFF780FD680608D57006FD
:1030E00006D521686FF040000861204600F0A3F982
:1030F000A8060AD5B00608D521686FF0200008613F
:103100002046BDE8F041FFF76ABDBDE8F081000050
:1031100030B587B0044614216846FDF7DAF9246813
:103120000023164D0320144A0221AC420ED114682C
:1031300044F002041460126803AC8DE80B0002F046
:10314000020284E807000E48694610E00D4DAC42CB
:103150000FD1146844F001041460126803AC8DE8C8
:103160000B0002F0010284E8070007486946FEF7F9
:10317000D1FD07B030BD0000E0440258000400401B
:1031800000040258000C004000000258704770B55F
:10319000044690F83C0000260D4601280BD0012083
:1031A00084F83C000C2A4AD007DC82B1042A20D0E3
:1031B000082A06D131E0022070BD102A53D0142A0B
:1031C00063D00126002084F83C00304670BD2068A2
:1031D00000F03EFC2068816941F0080181612068AF
:1031E000816921F00401816120682A6981691143A4
:1031F00011E0206800F07EFC2068816941F40061E4
:1032000081612068816921F4806181612068296978
:10321000826942EA01218161D4E7206800F0B6FCAE
:103220002068C16941F00801C1612068C16921F0CD
:103230000401C16120682A69C169114311E0206855
:1032400000F0F0FC2068C16941F40061C1612068B0
:10325000C16921F48061C16120682969C26942EABB
:103260000121C161AEE7206800F018FD2068416DC2
:1032700041F0080141652068416D21F0040141657C
:1032800020682A69416D114311E0206800F040FD7B
:103290002068416D41F4006141652068416D21F471
:1032A0008061416520682969426D42EA01214165DA
:1032B00088E710B5040003D094F83D0010B107E092
:1032C000012010BD002084F83C00204600F022F8C8
:1032D000022084F83D002068211D00F031FB012010
:1032E00084F8480084F83E0084F83F0084F84000E9
:1032F00084F8410084F8420084F8430084F84400D4
:1033000084F8450084F8460084F8470084F83D00BE
:10331000002010BD7047704730B504464FF00202E0
:1033200069B1042912D0082917D00C291CD0102902
:1033300021D094F84300012824D0012030BD94F816
:103340003E000128F9D184F83E201DE094F83F00AA
:103350000128F2D184F83F2016E094F840000128BB
:10336000EBD184F840200FE094F841000128E4D12B
:1033700084F8412008E094F842000128DDD184F867
:10338000422001E084F843200122206800F040FB45
:103390001B4B20681B491C4A984209D0884207D021
:1033A000904205D0194DA84202D0194DA84203D130
:1033B000456C45F4004545642068984212D0B0F150
:1033C000804F0FD0134B98420CD0134B984209D02A
:1033D000124B984206D0884204D01149884201D04D
:1033E000904207D181680F4A1140062906D0B1F5F5
:1033F000803F03D0016841F001010160002030BD31
:103400000000014000040140004001400044014030
:10341000004801400004004000080040000C00404B
:1034200000180040070001000068B0F1804F01D192
:10343000FEF7A0BD70477047FEE70000154808B5CD
:10344000016841F00101016000680022052100F0DF
:10345000010000900B20FEF777FE0B20FEF766FEC2
:10346000002205210C20FEF76FFE0C20FEF75EFE09
:10347000002205210D20FEF767FE0D20FEF756FE07
:10348000002205210E20FEF75FFEBDE808400E2059
:10349000FEF74CBED8440258074A0021074810B531
:1034A00000F04AFD064C0021034A24322060054802
:1034B00000F042FD606010BD545700086B370008F3
:1034C000000000247937000810B586B01421684642
:1034D000FCF7FFFF1948016841F001010160016834
:1034E00001F001010591016841F0100101600168DE
:1034F00001F010010591016841F08001016001684F
:1035000001F080010591016841F00201016000684D
:1035100001220B4C182100F0020005902046FEF716
:1035200017FD00211820009001222046CDE901213D
:1035300003916946FEF7EEFB06B010BDE044025869
:103540000010025810B58EB000241C21009407A86A
:10355000019402940394049405940694FCF7B9FF33
:103560002148D4211F4AC0E90024C0E90241046176
:103570008461FFF787FB08B1FDF71BFC4FF4805017
:10358000009019486946FFF79FFC08B1FDF711FC50
:103590001548FFF78EFE08B1FDF70BFC124804A991
:1035A00004940694FFF71CFB08B1FDF702FC6020B1
:1035B000CDE907040C48082207A909940B94FFF7EA
:1035C000E6FD08B1FDF7F5FB07480C2207A9FFF758
:1035D000DEFD08B1FDF7EDFB0348FFF799FD0EB0E6
:1035E00010BD0000000400407C02002410B58EB025
:1035F00000241C21009407A80194029403940494CD
:1036000005940694FCF765FF2148D4211F4AC0E9C0
:103610000024C0E9024104618461FFF733FB08B173
:10362000FDF7C7FB4FF48050009019486946FFF73B
:103630004BFC08B1FDF7BDFB1548FFF73AFE08B19A
:10364000FDF7B7FB124804A904940694FFF7C8FAE3
:1036500008B1FDF7AEFB6020CDE907040C4800225D
:1036600007A909940B94FFF792FD08B1FDF7A1FBA0
:103670000748042207A9FFF78AFD08B1FDF799FB67
:103680000348FFF745FD0EB010BD0000000C0040E0
:10369000C8020024FEE7000008B5002040F6B83557
:1036A0000090FDF7A1FAFDF7FDF9FDF731FB214888
:1036B0000821FFF731FE08B1FDF77BFB1D480C2107
:1036C000FFF72AFE08B1FDF774FB1B480021FFF746
:1036D00023FE08B1FDF76DFB17480421FFF71CFE20
:1036E00008B1FDF766FB4FF47A7400F0DFFB0228A7
:1036F000204606D0FEF7FCFA00F0D8FB022803D0E3
:1037000005E000F0ADFBF7E700F0E0FB00900024DF
:103710000020FDF793FA684600F010F8641CAC42F4
:10372000F6D34FF416742046FDF788FA684600F089
:1037300005F8F8E77C020024C802002410B504460E
:1037400000F0B4FB022804D0BDE810400120FEF7D1
:10375000CFBA2068401C206000F090FB002802D007
:1037600000F0B4FB206010BDFEE7FFF795FF0120DD
:1037700000F076FBF9E70000044C08212046FEF734
:10378000DFFB642000F06CFBF7E70000001002583C
:103790004FF0E02010B5006901F01AFE012803D0B7
:1037A000BDE8104001F03EBB10BD000030B59DB03B
:1037B0004C216846FCF78DFE202113A8FCF789FEFA
:1037C0000220FEF7F3FC22490A68224822F0010297
:1037D0000A600968016821F4404141F480410160B8
:1037E0000168002401F440411B910168C943890428
:1037F000FBD402200090402504950121039104226E
:103800000B921023CDE90904CDE90C300FAB0E90DB
:103810000C2183E8130068461294FEF71DFF08B1DF
:1038200072B6FEE713AB3F20032183E813004FF489
:1038300080621A950221CDE91645CDE9185213A8E8
:10384000FEF7DEFC002801D072B6FEE71DB030BDE9
:103850002C040058184802582C48F0B52C4A01682E
:1038600041F470010160106800F00F00072804D2D5
:10387000106820F00F00C01D106026490020254C64
:1038800010340B68244D43F001030B6020600B687B
:103890002B400B60136803F00F03072B04D9136848
:1038A00023F00F03DB1D13601A4C1C4A18341C4B09
:1038B000261D371D2060174C1A4D28343060261DF8
:1038C0003860371D23603B1D35601C1D3A60251D87
:1038D0002E1D1860331D22602860326018600A684F
:1038E0000C4B114C22F4802260330A60186020686F
:1038F0006FF30F00B0F1005F03D20C490120C1F853
:10390000080143F2D2000A490860F0BD88ED00E0EA
:1039100000200052004402587FEDF6EA80020101C7
:10392000000202020000FF010010005C0080005154
:10393000004000520148FFF746BB0000F404002499
:103940002DE9F0472A4B4FF0804A2A4D02689842F1
:10395000294E2A4F2A4C09D0504507D0A84205D0FD
:10396000B04203D0B84201D0A04205D1D1F804C082
:1039700022F070024CEA0202DFF888C0DFF888808B
:103980009842DFF888900FD050450DD0A8420BD058
:10399000B04209D0B84207D0A04205D0604503D05C
:1039A000404501D0484503D1CD6822F440722A43F6
:1039B0004D6922F080022A43026098428A68C262FE
:1039C0000A68826207D0A04205D0604503D0404516
:1039D00001D0484501D109690163012141610169B3
:1039E000C90703D0016921F001010161BDE8F08739
:1039F000000001400004004000080040000C0040AE
:103A000000040140004001400044014000480140E2
:103A100010B5046A012301F01F018B409C4304622E
:103A20008A40016A1143016210BD42EA03228368A1
:103A30000A4323F47F410A4382607047034B826844
:103A40001A400A4342F00701816070478FFFCFFFA1
:103A50002DE9F04FDFF88480214EDFF88890DFF801
:103A600088B0026A036AB042DFF880A022F0020C3C
:103A70001F4F23F001020262426885698B680C685F
:103A800005EA080525F0030543EA0C0344EA0504AA
:103A900007D0484505D0584503D0504501D0B8421D
:103AA00005D1CD6823F008031D4325F00403B0427F
:103AB00007D0484505D0584503D0504501D0B842FD
:103AC00005D122F44076D1E9055235432A434260BC
:103AD0008461496841630362BDE8F08F8FFFFEFF98
:103AE000000001400004014000400140004401404A
:103AF00000480140F0B5DFF87CE01F4C1F4D026A22
:103B0000036AA04222F0200623F0100303624268F9
:103B10008369D1F808C00F6803EA0E0323F4407EDE
:103B200046EA0C134EEA072601D0A84206D1CF6818
:103B300023F0800343EA071323F04003A0420AD096
:103B4000A84208D00E4CA04205D00E4CA04202D094
:103B50000D4CA04207D1D1E9054522F4406242EA6A
:103B6000840242EA85024260866149688163036299
:103B7000F0BD0000FF8FFFFE000001400004014087
:103B8000004001400044014000480140F0B5DFF82A
:103B90007CE01F4D1F4E026A036AA84222F40077A0
:103BA00023F4807303624368C269D1F808C002EA53
:103BB0000E020C6822F0030E47EA0C2244EA0E04BF
:103BC00001D0B04206D1CF6822F4006242EA072257
:103BD00022F48062A8420AD0B04208D00E4DA8421A
:103BE00005D00E4DA84202D00D4DA84207D1D1E913
:103BF000055623F4405343EA051343EA0613436092
:103C0000C4614968C1630262F0BD00008FFFFEFF1E
:103C10000000014000040140004001400044014018
:103C200000480140F0B5046A026A22F48052026240
:103C30004268C36924F40054DFF848C08E680D68F8
:103C400003EA0C03104F23F4407344EA0634B842ED
:103C500043EA05230BD00D4DA84208D00C4DA842D5
:103C600005D00C4DA84202D00B4DA84204D14D699D
:103C700022F4804242EA85124260C36149680164CD
:103C80000462F0BDFF8FFFFE000001400004014010
:103C9000004001400044014000480140F0B5164F8B
:103CA000164B026A046A984222F4003524F48033E9
:103CB00003624268436D0E890C6803EA070344EA15
:103CC000030445EA06430BD00D4DA84208D00D4D24
:103CD000A84205D00C4DA84202D00C4DA84204D1F8
:103CE0004D6922F4803242EA052242604465496807
:103CF00081650362F0BD00008FFFFEFF0000014000
:103D000000040140004001400044014000480140DF
:103D1000F0B5164F164B026A046A984224F48013D9
:103D2000036222F400144268436D0E890D6803EAB1
:103D3000070344EA065443EA05230BD00D4DA8427D
:103D400008D00D4DA84205D00C4DA84202D00C4D14
:103D5000A84204D14D6922F4802242EA85224260C1
:103D600043654968C1650462F0BD0000FF8FFFFE36
:103D700000000140000401400040014000440140B7
:103D80000048014010B5036A046A23F00A0324F0D6
:103D90000104046284690B4324F0F00141EA02113A
:103DA0008161036210BD10B5036A046A23F0A003A9
:103DB00024F010040462846943EA011124F470437E
:103DC00043EA02328261016210BDFEE70907002862
:103DD0004FEA116104DB00F1E02080F80014704725
:103DE00000F00F0000F1E02080F8141D70471FB5AF
:103DF00000240094019402940394FEF765F90120D5
:103E00008DF80C001F218DF8081087228DF80920ED
:103E10008DF80D008DF8000068468DF80A408DF889
:103E20000E408DF8014001948DF80B408DF80F4045
:103E3000FEF71CF90420FEF755F9FEF7A3F8FFF78B
:103E4000B5FCFFF741FBFFF7F9FAFFF77BFBFFF744
:103E5000CDFB00F043F8FFF71FFB00F051F8FEE741
:103E600010B5EFF3058111B16FF0050404E04FF0D8
:103E7000000408B100F030FE204610BD38B50546FC
:103E8000EFF3058010B16FF005040CE0002401F0A1
:103E9000ADFA291A0090002903DD684600F042FEC1
:103EA00001E06FF00304204638BD000010B501F0BA
:103EB0008FFA38B1022804D003480068012800D0E6
:103EC000002010BD032010BD6C000024EFF305801E
:103ED00008B101F091BA01F089BA0000EFF3058052
:103EE00010B16FF0050070470449086810B14FF039
:103EF000FF30704701220A60002070476C000024E8
:103F000010B5EFF3058010B16FF0050010BD084843
:103F10000168012902D04FF0FF3010BD054A002191
:103F200082F8141D0221016000F084FE002010BD03
:103F30006C0000240BE000E02DE9FF410B464FF040
:103F40000005EFF30581039561BB58B34FF0800680
:103F50004FF018014FF000044AB3176807B13C4610
:103F600097691FB139467F1E382F02D21779FF0794
:103F700003D0002004B0BDE8F081576907B1BE0846
:103F8000D2F808C0BCF1000F0DD0D5685C2D18D355
:103F900012693AB137B18DE806103246214601F078
:103FA000ECF903900DE0D7685FB912694AB903AA2A
:103FB000CDE90012B2B2214601F0B2F9012800D0D9
:103FC00003950398D6E700002DE9F041134C0F4606
:103FD0000546E6682068001D00F048FC681C07D113
:103FE00037B12168BDE8F0410D48091D00F090BCD3
:103FF00020683544B5424560216805D2A06B091D93
:10400000BDE8F04100F06CBC606B091D00F068FC7D
:10401000A06A854200D2A562BDE8F0811C000024A0
:10402000300A00242DE9F041054600F07DFC2D4CBE
:104030002D4FA068401CA060206810B1606930B3AB
:104040002BE02560A068012827D1002606EB86001A
:1040500007EB800000F036FC761C382EF6D32348A0
:1040600000F030FC2148143000F02CFC1F482830B0
:1040700000F028FC1D483C3000F024FC1B48503068
:1040800000F020FC194860631430A06305E0E86A82
:104090002168C96A814200D82560606A401C60625C
:1040A0006864E86A2169884200D9206100EB8000D9
:1040B000291D07EB800000F02BFC00F055FC606927
:1040C00000280CD02068E96AC06A884207D20849F3
:1040D0004FF080500860BFF34F8FBFF36F8FBDE884
:1040E000F08100001C00002480050024E009002469
:1040F00004ED00E038B500F017FC104C2068C8B99A
:104100000F4800F0DFFB0E48143000F0DBFB0C49D9
:104110000020E16014312161A1F582730090A1F1CA
:10412000B40210210A2000F093FE206010B105A116
:1041300000F09CFCBDE8384000F016BC580000249C
:10414000340B0024546D72510000000030B4026C36
:104150000B46002A0BD0D0E902411144C160A142B4
:1041600001D30168C160184630BCFCF765B930BCAA
:1041700070472DE9F041856B1746026C0446002616
:1041800082B1C7B1E068FCF757F9E168206C22689A
:10419000091AE160914202D2A168081AE060022F78
:1041A00016D017E02068A8B9A06801F091F906467A
:1041B0000020A0600EE06068FCF73EF9D4E9010140
:1041C000226C10446060884204D32068606001E083
:1041D00005B16D1E6D1CA5633046BDE8F08110B5BC
:1041E000044690F8590058B101280CD002280FD08D
:1041F000502080F31188BFF34F8FBFF36F8FFEE71E
:10420000206B00F0C5FB2046BDE8104000F0C0BBAD
:1042100010BD000011484FF4705110B5420706D090
:104220000E49C01D20F00700411AC1F570510C4C19
:10423000002301440839A4F1180221F00701C4E960
:1042400000030C1A11604B600B60C0E9001494600D
:104250004FF000415460516110BD00001412002461
:1042600088000024144E4FF08058144CDFF8509012
:10427000A6F29C4712E000BF00F056FBF068C5684C
:10428000281D00F0F3FAA068401EA0606068401E80
:10429000606000F069FB2846FFF7A1FF6068002816
:1042A000EAD138680128F9D9C9F80080BFF34F8FE7
:1042B000BFF36F8FF2E700001C0A00241C000024EB
:1042C00004ED00E070B51D46049C51B1C4F8002017
:1042D000C4E90F010121204600F0EEFD84F84C50A6
:1042E00070BD2460F4E72DE9F05F88469A4691009E
:1042F0001546DDE90B940A9EA5228346206BFCF748
:10430000E0F8206B6FF0030101EB8501084420F019
:104310000707780707D0502080F31188BFF34F8F2D
:10432000BFF36F8FFEE7B8F1000F4FF000050ED01E
:104330000020221818F8001082F8341018F8001025
:1043400011B1401C1028F4D384F8435001E084F8E4
:104350003450382E00D33726E662201DC4E9136599
:1043600000F0BBFA04F1180000F0B7FA6565C6F179
:104370003800A06184F858505246246159463846A6
:10438000646200F05BFAB9F1000F206001D0C9F857
:104390000040BDE8F09F000030B5114900E0114633
:1043A0000A688242FBD34B685C18844203D144689C
:1043B000084623444B6043681D18954209D1084CB8
:1043C000183C2468A24209D052681A4442600A6824
:1043D00012680260814200D0086030BD0460F9E7D5
:1043E0008800002470B50D4D914241604FF00004EB
:1043F000006106D88169D21A8A4206D2011D286955
:1044000007E09A4203D2994201D3012403E0011D3F
:10441000E86800F065FA204670BD000058000024EE
:1044200010B5044600F080FAA06B28B15FF00004DC
:1044300000F09AFA204610BD0124F9E730B53C4D52
:1044400089B06BE00498002806DA059ADDE90601D8
:1044500090470498002861DB069C606910B1201D1C
:1044600000F004FA03A800F0D5F8024604980A28E0
:1044700054D2DFE800F00505052D304705052D3045
:1044800094F8280040F0010084F82800A0690599FC
:104490000B4601442046FFF7A5FF50B3216A204692
:1044A000884794F82800400738D5002000900598E8
:1044B0000023A16942181946204601F011F9C0B93C
:1044C000502080F31188BFF34F8FBFF36F8FFEE74B
:1044D00094F828001EE094F8280040F0010084F8C9
:1044E00028000598A06128B1811813462046FFF7DF
:1044F00079FF13E0502080F31188BFF34F8FBFF393
:104500006F8FFEE794F82800810703D4204600F05F
:104510003FFA03E020F0010084F828002868002218
:1045200004A900F023FE00288CD109B030BD0000A2
:10453000580000242DE9FC410F46054600F0BEFB63
:1045400001A800F067F80446019818B101F036F8A8
:10455000BDE8FC81254EAFB130690068D0B30027BB
:104560003068291B3A4600F095FA01F027F8002838
:10457000EED11F494FF080500860BFF34F8FBFF35B
:104580006F8FE5E7A542EBD801F018F8F0682746F1
:10459000C068C468201D00F069F994F8280041073C
:1045A00019D5A0692B463A4641192046FFF71AFF54
:1045B000A8B100202A46034601460090204601F09B
:1045C0008FF860B9502080F31188BFF34F8FBFF38D
:1045D0006F8FFEE707E020F0010084F82800216AD1
:1045E00020468847B4E70127BAE7000058000024B6
:1045F00004ED00E00648416B096829B1416BC968C8
:10460000C9684968816270474FF0FF31FAE70000DE
:104610001C00002470B5054600F0E8FE064E044676
:10462000B068844203D200F009F8012000E00020C5
:1046300028602046B46070BD58000024F8B5194DBC
:1046400020E0C068C4680668201D00F00FF9216AE8
:104650002046884794F82800400713D5A0693044C5
:10466000B04206D92461211D6060E86800F038F985
:1046700008E000203246034601460090204601F043
:104680002FF838B1E86801680029DAD12969C5E94D
:104690000310F8BD502080F31188BFF34F8FBFF394
:1046A0006F8FFEE75800002408484068401C4FF018
:1046B000500080F3118804D0BFF34F8FBFF36F8F8A
:1046C000FEE7BFF34F8FBFF36F8FFEE7900000242C
:1046D000074CE068016841B1C0680021D0F80000D3
:1046E000FFF728FFFFF7AAFEF3E701210020F7E715
:1046F000580000242DE9F041044600F015F994F922
:10470000455004F1240609E0606A48B1304600F0E3
:104710001DFF08B100F054FA6D1E6DB2002DF3DCE0
:104720004FF0FF3684F8456000F01EF900F0FCF809
:1047300094F9445004F1100709E0206948B1384663
:1047400000F004FF08B100F03BFA6D1E6DB2002DC1
:10475000F3DC84F84460BDE8F04100F005B90000E6
:104760002DE9F0410027044600F0A8FA324E3068E7
:1047700008B9FFF74FFD706904424ED1C4B3083445
:1047800060070ED004F00700C0F108000444600781
:1047900007D0502080F31188BFF34F8FBFF36F8F86
:1047A000FEE72CB37068844237D82348183001469E
:1047B0000D6801E028460D466968A14202D22968C9
:1047C0000029F7D131688D4227D007682968016038
:1047D00008376868011B10290FD92819420708D02B
:1047E000502080F31188BFF34F8FBFF36F8FFEE728
:1047F00013E041606C60FFF7CFFD69687068401A94
:104800007060B268904200D2B060002072691143BB
:10481000C5E90001F068401CF06000F0CFFE7807A9
:1048200007D0502080F31188BFF34F8FBFF36F8FF5
:10483000FEE73846BDE8F0817000002470B5041F23
:10484000094E231F4FF0807521F0010125601C1FC8
:104850001960A0F120010B1F266044380A606FF038
:1048600002051D6070BD0000A9460008D0E90132B4
:1048700001699A60D0E901235A604A68824201D1F5
:1048800082684A60002202610868401E0860086869
:104890007047000010B5044C8023046004F15C00F4
:1048A0000860136010BD00005C0B002410B5044CC0
:1048B0004FF48073046004F15C000860136010BD65
:1048C000B80D00244FF0FF3300F108010022C0E9C9
:1048D00001130260C16001617047002101617047EE
:1048E00030B50B685A1C02D000F1080202E00269E0
:1048F00004E02246546825689D42FAD953684B600B
:1049000099608A60516008610168491C016030BD8E
:1049100042684A6093688B6093685960916008614F
:104920000168491C01607047502080F31188BFF373
:104930004F8FBFF36F8F0A494868401C48600128B9
:104940000CD10848006810F0FF0F07D0502080F30A
:104950001188BFF34F8FBFF36F8FFEE770470000E2
:104960009000002404ED00E00849486828B1401E8A
:10497000486001D180F311887047502080F311887E
:10498000BFF34F8FBFF36F8FFEE70000900000244E
:1049900070B500282AD0164DA0F108046168686936
:1049A000014207D1502080F31188BFF34F8FBFF32E
:1049B0006F8FFEE722683AB1502080F31188BFF371
:1049C0004F8FBFF36F8FFEE78143616000F076F990
:1049D00060686968084468602046FFF7DDFC286964
:1049E000401C2861BDE8704000F0E8BD70BD0000CB
:1049F000700000244FF0E020002101614FF47A7232
:104A00008161072303490968B1FBF2F1491E416145
:104A1000036170471400002410B5FBF7E9FC11494D
:104A200010280ED300F1E0200A7890F8F0039042AD
:104A300007D2502080F31188BFF34F8FBFF36F8FE1
:104A4000FEE709488968006800F4E060884207D9F9
:104A5000502080F31188BFF34F8FBFF36F8FFEE7B5
:104A600010BD0000900000240CED00E0084B5FF04A
:104A7000000210B553F832401CB1521C082AF9D379
:104A800010BD03EBC20443F83210606010BD00009B
:104A90004005002470B515460E460446FFF744FF56
:104AA00094F944100020491C01D184F8440094F981
:104AB0004510491C01D184F84500FFF755FFA06B54
:104AC00028B904F124002A46314600F097F8204620
:104AD000BDE87040FFF70EBE020010B514D00F48BD
:104AE000006B38B1502080F31188BFF34F8FBFF3B4
:104AF0006F8FFEE700F0E2F800211046FFF764FA3E
:104B000000F05CFD002807D105494FF08050086097
:104B1000BFF34F8FBFF36F8F10BD00001C00002448
:104B200004ED00E070B504000D460BD095B11E4AAF
:104B3000106BB8B1502080F31188BFF34F8FBFF3D3
:104B40006F8FFEE7502080F31188BFF34F8FBFF3C4
:104B50006F8FFEE7502080F31188BFF34F8FBFF3B4
:104B60006F8FFEE700F0AAF82368D26859199342C4
:104B700004D98B420AD9914202D807E08B42FAD974
:104B8000881A21600021FFF71FFA00E0216000F081
:104B900015FD002807D105494FF080500860BFF38C
:104BA0004F8FBFF36F8F70BD1C00002404ED00E039
:104BB00002490A6A0260C968416070471C0000240B
:104BC00001490120C86170471C00002410B50C4643
:104BD00050B1094909681831FFF782FE2046BDE847
:104BE00010400121FFF7F0B9502080F31188BFF386
:104BF0004F8FBFF36F8FFEE71C00002470B5144683
:104C00000D4668B10A4909681831FFF781FE0CB1F9
:104C10004FF0FF3521462846BDE87040FFF7D4B974
:104C2000502080F31188BFF34F8FBFF36F8FFEE7E3
:104C30001C00002430B587B0002405AA04A9039401
:104C400003A80494FFF726FEDDE903010094002386
:104C5000CDE90110174815A1059A00F08EFB164DFD
:104C60000028E8621FD000F00BFD012809D0401C8D
:104C700019D1502080F31188BFF34F8FBFF36F8F8E
:104C8000FEE7502080F31188BFF34F8FBFF36F8F83
:104C900001214FF0FF30A8626961EC6007B0BDE808
:104CA000304000F045B807B030BD000049444C45E5
:104CB00000000000654200081C0000240248016B4F
:104CC000491C0163704700001C000024164810B501
:104CD000016B11B10121C16110BD0021C161134AF5
:104CE000016901E0B9B1491E01EB810352F823309B
:104CF000002BF7D001EB810302EB830202F10804E1
:104D000053685B685360A34201D15B685360DA6803
:104D10000260016110BD502080F31188BFF34F8FF6
:104D2000BFF36F8FFEE700001C0000248005002405
:104D300037481CB5374902688A4207D1502080F3B2
:104D40001188BFF34F8FBFF36F8FFEE731490068C3
:104D5000491E884207D1502080F31188BFF34F8F3E
:104D6000BFF36F8FFEE72C49FF200A78019208708D
:104D700008788DF800009DF800209DF8000002F0F2
:104D8000F002824207D0502080F31188BFF34F8F8A
:104D9000BFF36F8FFEE79DF8002007201F4C02F045
:104DA00050022270A06005E09DF8002052008DF8AE
:104DB0000020401E9DF800201206F5D40328A060B4
:104DC00007D0502080F31188BFF34F8FBFF36F8F50
:104DD000FEE74FF44070A060019808700C48203046
:104DE000016841F470010160016841F070410160A7
:104DF000FFF700FE00206060FBF7C2FA0848016878
:104E000041F040410160FBF7A7FA00201CBD000003
:104E100000ED00E071C20F4100E400E090000024CA
:104E200034EF00E0502010B580F31188BFF34F8FAE
:104E3000BFF36F8F00F0E8FA18B104494FF08050CB
:104E40000860002080F3118810BD000004ED00E030
:104E5000F8B5069D18B153B1CAB181B120E0502018
:104E600080F31188BFF34F8FBFF36F8FFEE75020A1
:104E700080F31188BFF34F8FBFF36F8FFEE7502091
:104E800080F31188BFF34F8FBFF36F8FFEE739B107
:104E9000502080F31188BFF34F8FBFF36F8FFEE771
:104EA00050241C46012683F8466000932B46FFF7EA
:104EB00009FA2046F8BD00002DE9F04704008A46B3
:104EC00029D0FFF731FD21680025D4E90F23D4F85C
:104ED00040C004F1100810460E46401E4FF0FF3946
:104EE00002FB031200FB0C10BAF1000FA563666011
:104EF00084F8449084F84590C4E9022013D04046D9
:104F0000FFF7E0FC04F12400FFF7DCFCFFF72CFDC9
:104F10000120BDE8F087502080F31188BFF34F8F48
:104F2000BFF36F8FFEE720690028EFD0404600F006
:104F30000DFB0028EAD004494FF080500860BFF311
:104F40004F8FBFF36F8FE1E704ED00E02DE9FF47DE
:104F500004001D4682B08A464FF0000803D0BAF123
:104F6000000F08D011E0502080F31188BFF34F8F5D
:104F7000BFF36F8FFEE7206C38B1502080F31188AB
:104F8000BFF34F8FBFF36F8FFEE7022D0AD1E06BA7
:104F9000012807D0502080F31188BFF34F8FBFF353
:104FA0006F8FFEE700F014FA3F4F4FF080564FF03E
:104FB000000948B9049838B1502080F31188BFF334
:104FC0004F8FBFF36F8FFEE7FFF7AEFCA06BE16B77
:104FD000884207D3022D05D00498D0B1B8F1000F54
:104FE0001AD01EE02A4651462046FFF7C2F8616AF1
:104FF00019B104F1240000F0A9FA20B13E60BFF31A
:105000004F8FBFF36F8FFFF7AFFC012006B0BDE8F5
:10501000F087FFF7A9FC22E06846FFF7C9FD4FF0D3
:105020000108FFF7A1FCFFF749FEFFF77DFC94F9AB
:105030004400401C01D184F8449094F94500401C80
:1050400001D184F84590FFF78FFC04A9684600F071
:105050002BF930B12046FFF74DFB00F0AFFA0020EE
:10506000D4E7FFF761FCA06BE16B884213D1FFF737
:105070007BFC049904F11000FFF7A8FD2046FFF720
:1050800039FB00F09BFA00289ED13E60BFF34F8FA2
:10509000BFF36F8F98E7FFF767FC2046FFF72AFB07
:1050A00000F08CFA90E7000004ED00E02DE9F047F5
:1050B00004001F469046894603D0B9F1000F08D07E
:1050C00011E0502080F31188BFF34F8FBFF36F8F33
:1050D000FEE7206C38B1502080F31188BFF34F8F6A
:1050E000BFF36F8FFEE7022F0AD1E06B012807D0D4
:1050F000502080F31188BFF34F8FBFF36F8FFEE70F
:10510000FFF78AFC5020EFF3118680F31188BFF37C
:105110004F8FBFF36F8FA06BE16B884206D3022FD6
:1051200004D0002086F31188BDE8F08794F945503B
:10513000A06B3A4649462046FFF71BF8681C04D08E
:105140006D1C84F845500120ECE7606A0028FAD015
:1051500004F1240000F0FAF90028F4D0B8F1000FAF
:10516000F1D00121C8F80010EDE700002DE9F74764
:1051700004008A4683B04FF0000603D0BAF1000F56
:1051800008D011E0502080F31188BFF34F8FBFF398
:105190006F8FFEE7206C38B1502080F31188BFF389
:1051A0004F8FBFF36F8FFEE700F012F9DFF8F48046
:1051B0004FF080574FF0000948B9059838B150209A
:1051C00080F31188BFF34F8FBFF36F8FFEE7FFF7B8
:1051D000ABFBA56BC5B151462046FEF7B7FF6D1E70
:1051E000A563206950B104F1100000F0AFF928B1B7
:1051F000C8F80070BFF34F8FBFF36F8FFFF7B4FB9A
:10520000012006B0BDE8F087059808B11EB106E0A0
:10521000FFF7AAFB27E06846FFF7CAFC0126FFF765
:10522000A3FBFFF74BFDFFF77FFB94F94400401C05
:1052300001D184F8449094F94500401C01D184F8D0
:105240004590FFF791FB05A9684600F02DF800286E
:1052500020460AD0FFF74EFA00F0B0F92046FFF7DB
:10526000DFF80028B3D00020CBE7FFF7D9F890B1E2
:10527000059904F12400FFF7A9FC2046FFF73AFA4C
:1052800000F09CF90028A2D1C8F80070BFF34F8F3E
:10529000BFF36F8F9BE72046FFF72CFA00F08EF9E3
:1052A00095E7000004ED00E02DE9F04105000C4613
:1052B00012D0CCB1FFF738FB184E2068F268471CBB
:1052C0006B68A2EB030117D02F68366AB74215D07E
:1052D000934213D801251CE0502080F31188BFF3BE
:1052E0004F8FBFF36F8FFEE7502080F31188BFF31D
:1052F0004F8FBFF36F8FFEE700250AE0884205D984
:10530000401A20602846FFF753FCF5E70020206094
:105310000125FFF729FB2846BDE8F0811C00002489
:105320002DE9FF5F994616468A4683469000DDE9DF
:105330000E87FFF715FA05001CD05C20FFF710FA66
:10534000040014D00020256384F859004B46CDE9B1
:105350000087CDE90240324651465846FEF7C3FF6A
:105360002046FEF75FFE012004B0BDE8F09F28460E
:10537000FFF70EFB4FF0FF30F6E7F0B585B0DDE943
:105380000B740A9DA7B1DCB15C262763022684F862
:105390005960002703970DF1100C0095CDE901C469
:1053A000FEF7A1FF2046FEF73DFE049805B0F0BDD4
:1053B000502080F31188BFF34F8FBFF36F8FFEE74C
:1053C000502080F31188BFF34F8FBFF36F8FFEE73C
:1053D0000548416919B1006B18B1002070470120E0
:1053E00070470220704700001C0000240148C0687C
:1053F000704700001C00002410B5FFF70DFB0148AA
:10540000C06810BD1C0000242DE9F0412E4C206B1B
:10541000002728B1A069401CA0613846BDE8F08192
:10542000E668761CE66013D1606B006838B15020E6
:1054300080F31188BFF34F8FBFF36F8FFEE7606B70
:10544000A16B6163A063206A401C2062FFF7D2F861
:10545000DFF87880A06A864209D3606B0068A0B14B
:10546000606BC068C5686868864211D2A062206817
:10547000C06A00EB800158F82100012800D90127FB
:10548000E0690028C9D00127C7E74FF0FF30EDE7FA
:10549000281DFFF7EBF9A86A18B105F11800FFF70E
:1054A000E5F9E86A2169884200D9206100EB8001B2
:1054B00008EB8100291DFFF72BFA2068E96AC06A12
:1054C0008142CAD30127C8E71C00002480050024BC
:1054D00070B504464FF0000190B31A4D286884421D
:1054E00007D0502080F31188BFF34F8FBFF36F8F29
:1054F000FEE7206D38B1E36C401EE26A20659A42F7
:105500001ED040B11CE0502080F31188BFF34F8FB4
:10551000BFF36F8FFEE7201DFFF7A8F9E06CC0F125
:105520003801A161E0622969884200D9286100EB55
:105530008000054901EB8000211DFFF7E9F90121F9
:10554000084670BD1C0000248005002470B5C068AA
:10555000C46854B104F118000646FFF787F9144DEA
:10556000286B50B11348314615E0502080F3118864
:10557000BFF34F8FBFF36F8FFEE7201DFFF776F964
:10558000E06A2969884200D9286100EB80000A4955
:1055900001EB8000211DFFF7BBF9E06A2968C96AA9
:1055A000884203D90121E961084670BD002070BD21
:1055B0001C000024080A0024800500242DE9F0477F
:1055C0002C4D286B0024274638B1FFF7ADF9286B26
:1055D000401E2863286B40B147E0502080F31188BB
:1055E000BFF34F8FBFF36F8FFEE7234E0120A968F3
:1055F000D9B3A6F5916980463068E0B1F068C46817
:1056000004F11800FFF732F9201DFFF72FF9E06AC7
:105610002969884200D9286100EB800109EB8100EB
:10562000211DFFF775F9E06A2968C96A8842E3D34A
:10563000C5F81C80E0E70CB1FEF7DCFFAC694CB1AB
:105640004FEA0806FFF7E0FE00B1EE61641EF9D1F3
:105650000020A861E86940B1084901274FF0805057
:105660000860BFF34F8FBFF36F8FFFF77DF93846A8
:10567000BDE8F0871C000024080A002404ED00E0C7
:1056800010B586B0FEF736FD114C2068B8B1002089
:10569000039005AA049004A903A8FFF707F9DDE920
:1056A0000321022000238DE807000C4809A1059A78
:1056B000FFF763FE606010B106B0012010BD5020FE
:1056C00080F31188BFF34F8FBFF36F8FFEE70000A9
:1056D00058000024546D722053766300D1460008B0
:1056E0002DE9FF411E46134602004FF000000A9DBF
:1056F00016D0144C2768002F0FD006290292CDE94E
:10570000001317DAFFF764FE02284FF000030FD0F2
:10571000002220686946FFF719FC04B0BDE8F0815B
:10572000502080F31188BFF34F8FBFF36F8FFEE7D8
:105730002A46EEE70023324669463846FFF7B6FCB4
:10574000EBE70000580000244FF04070E1EE100A33
:1057500070470000B457000800000000000000007F
:10576000000000000000000000020000080000002F
:105770000000000000000000C0570008000000000A
:105780000000000000000000000000000002000017
:1057900018000000000000000000000000061016C5
:1057A00000061016000000000102030401020304B9
:1057B0000607080964656661756C745461736B0053
:1057C0004C45445F436F6E74726F6C00EC57000879
:1057D000000000249C000000D40200088858000843
:1057E0009C000024DC530000F002000800000000D0
:1057F0000000000001000000100000000000000098
:105800000090D0030090D0030000000000000000D2
:105810000000000000000000000000000000000088
:105820000000000000000000000000000000000078
:105830000000000000000000000000000000000068
:105840000000000000000000000000000000000058
:105850000000000000000000000000000000000048
:105860000000000000000000000000000000000038
:105870000000000000000000000000000000000028
:08588000AAAAAAAA0000000078
:040000050800029954
:00000001FF
